{
  "address": "0x5fDa873200F40581823D84Eb9150020aA8d470B8",
  "abi": [
    {
      "inputs": [
        {
          "internalType": "address",
          "name": "_vrfCoordinator",
          "type": "address"
        },
        {
          "internalType": "address",
          "name": "_linkTokenAddress",
          "type": "address"
        },
        {
          "internalType": "bytes32",
          "name": "_keyHash",
          "type": "bytes32"
        }
      ],
      "stateMutability": "nonpayable",
      "type": "constructor"
    },
    {
      "inputs": [
        {
          "internalType": "address",
          "name": "have",
          "type": "address"
        },
        {
          "internalType": "address",
          "name": "want",
          "type": "address"
        }
      ],
      "name": "OnlyCoordinatorCanFulfill",
      "type": "error"
    },
    {
      "anonymous": false,
      "inputs": [
        {
          "indexed": true,
          "internalType": "address",
          "name": "owner",
          "type": "address"
        },
        {
          "indexed": true,
          "internalType": "address",
          "name": "approved",
          "type": "address"
        },
        {
          "indexed": true,
          "internalType": "uint256",
          "name": "tokenId",
          "type": "uint256"
        }
      ],
      "name": "Approval",
      "type": "event"
    },
    {
      "anonymous": false,
      "inputs": [
        {
          "indexed": true,
          "internalType": "address",
          "name": "owner",
          "type": "address"
        },
        {
          "indexed": true,
          "internalType": "address",
          "name": "operator",
          "type": "address"
        },
        {
          "indexed": false,
          "internalType": "bool",
          "name": "approved",
          "type": "bool"
        }
      ],
      "name": "ApprovalForAll",
      "type": "event"
    },
    {
      "anonymous": false,
      "inputs": [
        {
          "indexed": true,
          "internalType": "uint256",
          "name": "tokenId",
          "type": "uint256"
        },
        {
          "indexed": false,
          "internalType": "string",
          "name": "tokenURI",
          "type": "string"
        }
      ],
      "name": "CreatedRandomSVG",
      "type": "event"
    },
    {
      "anonymous": false,
      "inputs": [
        {
          "indexed": true,
          "internalType": "uint256",
          "name": "tokenId",
          "type": "uint256"
        },
        {
          "indexed": false,
          "internalType": "uint256",
          "name": "randomNumber",
          "type": "uint256"
        }
      ],
      "name": "CreatedUnfinishedRandomSVG",
      "type": "event"
    },
    {
      "anonymous": false,
      "inputs": [
        {
          "indexed": true,
          "internalType": "address",
          "name": "previousOwner",
          "type": "address"
        },
        {
          "indexed": true,
          "internalType": "address",
          "name": "newOwner",
          "type": "address"
        }
      ],
      "name": "OwnershipTransferred",
      "type": "event"
    },
    {
      "anonymous": false,
      "inputs": [
        {
          "indexed": true,
          "internalType": "uint256",
          "name": "requestId",
          "type": "uint256"
        },
        {
          "indexed": true,
          "internalType": "uint256",
          "name": "tokenId",
          "type": "uint256"
        }
      ],
      "name": "RequestedSVGNFT",
      "type": "event"
    },
    {
      "anonymous": false,
      "inputs": [
        {
          "indexed": true,
          "internalType": "address",
          "name": "from",
          "type": "address"
        },
        {
          "indexed": true,
          "internalType": "address",
          "name": "to",
          "type": "address"
        },
        {
          "indexed": true,
          "internalType": "uint256",
          "name": "tokenId",
          "type": "uint256"
        }
      ],
      "name": "Transfer",
      "type": "event"
    },
    {
      "inputs": [
        {
          "internalType": "address",
          "name": "to",
          "type": "address"
        },
        {
          "internalType": "uint256",
          "name": "tokenId",
          "type": "uint256"
        }
      ],
      "name": "approve",
      "outputs": [],
      "stateMutability": "nonpayable",
      "type": "function"
    },
    {
      "inputs": [
        {
          "internalType": "address",
          "name": "owner",
          "type": "address"
        }
      ],
      "name": "balanceOf",
      "outputs": [
        {
          "internalType": "uint256",
          "name": "",
          "type": "uint256"
        }
      ],
      "stateMutability": "view",
      "type": "function"
    },
    {
      "inputs": [],
      "name": "cancelSubscription",
      "outputs": [],
      "stateMutability": "nonpayable",
      "type": "function"
    },
    {
      "inputs": [
        {
          "internalType": "uint256",
          "name": "",
          "type": "uint256"
        }
      ],
      "name": "colors",
      "outputs": [
        {
          "internalType": "string",
          "name": "",
          "type": "string"
        }
      ],
      "stateMutability": "view",
      "type": "function"
    },
    {
      "inputs": [],
      "name": "create",
      "outputs": [
        {
          "internalType": "uint256",
          "name": "requestId",
          "type": "uint256"
        }
      ],
      "stateMutability": "payable",
      "type": "function"
    },
    {
      "inputs": [
        {
          "internalType": "uint256",
          "name": "_tokenId",
          "type": "uint256"
        }
      ],
      "name": "finishMint",
      "outputs": [],
      "stateMutability": "nonpayable",
      "type": "function"
    },
    {
      "inputs": [
        {
          "internalType": "uint256",
          "name": "_amount",
          "type": "uint256"
        }
      ],
      "name": "fundSubscription",
      "outputs": [],
      "stateMutability": "nonpayable",
      "type": "function"
    },
    {
      "inputs": [
        {
          "internalType": "uint256",
          "name": "tokenId",
          "type": "uint256"
        }
      ],
      "name": "getApproved",
      "outputs": [
        {
          "internalType": "address",
          "name": "",
          "type": "address"
        }
      ],
      "stateMutability": "view",
      "type": "function"
    },
    {
      "inputs": [
        {
          "internalType": "address",
          "name": "owner",
          "type": "address"
        },
        {
          "internalType": "address",
          "name": "operator",
          "type": "address"
        }
      ],
      "name": "isApprovedForAll",
      "outputs": [
        {
          "internalType": "bool",
          "name": "",
          "type": "bool"
        }
      ],
      "stateMutability": "view",
      "type": "function"
    },
    {
      "inputs": [],
      "name": "maxNumberOfPathCommands",
      "outputs": [
        {
          "internalType": "uint256",
          "name": "",
          "type": "uint256"
        }
      ],
      "stateMutability": "view",
      "type": "function"
    },
    {
      "inputs": [],
      "name": "maxNumberOfPaths",
      "outputs": [
        {
          "internalType": "uint256",
          "name": "",
          "type": "uint256"
        }
      ],
      "stateMutability": "view",
      "type": "function"
    },
    {
      "inputs": [],
      "name": "name",
      "outputs": [
        {
          "internalType": "string",
          "name": "",
          "type": "string"
        }
      ],
      "stateMutability": "view",
      "type": "function"
    },
    {
      "inputs": [],
      "name": "owner",
      "outputs": [
        {
          "internalType": "address",
          "name": "",
          "type": "address"
        }
      ],
      "stateMutability": "view",
      "type": "function"
    },
    {
      "inputs": [
        {
          "internalType": "uint256",
          "name": "tokenId",
          "type": "uint256"
        }
      ],
      "name": "ownerOf",
      "outputs": [
        {
          "internalType": "address",
          "name": "",
          "type": "address"
        }
      ],
      "stateMutability": "view",
      "type": "function"
    },
    {
      "inputs": [
        {
          "internalType": "uint256",
          "name": "",
          "type": "uint256"
        }
      ],
      "name": "pathCommands",
      "outputs": [
        {
          "internalType": "string",
          "name": "",
          "type": "string"
        }
      ],
      "stateMutability": "view",
      "type": "function"
    },
    {
      "inputs": [],
      "name": "price",
      "outputs": [
        {
          "internalType": "uint256",
          "name": "",
          "type": "uint256"
        }
      ],
      "stateMutability": "view",
      "type": "function"
    },
    {
      "inputs": [
        {
          "internalType": "uint256",
          "name": "requestId",
          "type": "uint256"
        },
        {
          "internalType": "uint256[]",
          "name": "randomWords",
          "type": "uint256[]"
        }
      ],
      "name": "rawFulfillRandomWords",
      "outputs": [],
      "stateMutability": "nonpayable",
      "type": "function"
    },
    {
      "inputs": [],
      "name": "renounceOwnership",
      "outputs": [],
      "stateMutability": "nonpayable",
      "type": "function"
    },
    {
      "inputs": [
        {
          "internalType": "uint256",
          "name": "",
          "type": "uint256"
        }
      ],
      "name": "requestIdToSender",
      "outputs": [
        {
          "internalType": "address",
          "name": "",
          "type": "address"
        }
      ],
      "stateMutability": "view",
      "type": "function"
    },
    {
      "inputs": [
        {
          "internalType": "uint256",
          "name": "",
          "type": "uint256"
        }
      ],
      "name": "requestIdToTokenId",
      "outputs": [
        {
          "internalType": "uint256",
          "name": "",
          "type": "uint256"
        }
      ],
      "stateMutability": "view",
      "type": "function"
    },
    {
      "inputs": [
        {
          "internalType": "address",
          "name": "from",
          "type": "address"
        },
        {
          "internalType": "address",
          "name": "to",
          "type": "address"
        },
        {
          "internalType": "uint256",
          "name": "tokenId",
          "type": "uint256"
        }
      ],
      "name": "safeTransferFrom",
      "outputs": [],
      "stateMutability": "nonpayable",
      "type": "function"
    },
    {
      "inputs": [
        {
          "internalType": "address",
          "name": "from",
          "type": "address"
        },
        {
          "internalType": "address",
          "name": "to",
          "type": "address"
        },
        {
          "internalType": "uint256",
          "name": "tokenId",
          "type": "uint256"
        },
        {
          "internalType": "bytes",
          "name": "_data",
          "type": "bytes"
        }
      ],
      "name": "safeTransferFrom",
      "outputs": [],
      "stateMutability": "nonpayable",
      "type": "function"
    },
    {
      "inputs": [
        {
          "internalType": "address",
          "name": "operator",
          "type": "address"
        },
        {
          "internalType": "bool",
          "name": "approved",
          "type": "bool"
        }
      ],
      "name": "setApprovalForAll",
      "outputs": [],
      "stateMutability": "nonpayable",
      "type": "function"
    },
    {
      "inputs": [],
      "name": "size",
      "outputs": [
        {
          "internalType": "uint256",
          "name": "",
          "type": "uint256"
        }
      ],
      "stateMutability": "view",
      "type": "function"
    },
    {
      "inputs": [
        {
          "internalType": "bytes4",
          "name": "interfaceId",
          "type": "bytes4"
        }
      ],
      "name": "supportsInterface",
      "outputs": [
        {
          "internalType": "bool",
          "name": "",
          "type": "bool"
        }
      ],
      "stateMutability": "view",
      "type": "function"
    },
    {
      "inputs": [],
      "name": "symbol",
      "outputs": [
        {
          "internalType": "string",
          "name": "",
          "type": "string"
        }
      ],
      "stateMutability": "view",
      "type": "function"
    },
    {
      "inputs": [],
      "name": "tokenCounter",
      "outputs": [
        {
          "internalType": "uint256",
          "name": "",
          "type": "uint256"
        }
      ],
      "stateMutability": "view",
      "type": "function"
    },
    {
      "inputs": [
        {
          "internalType": "uint256",
          "name": "",
          "type": "uint256"
        }
      ],
      "name": "tokenIdToRandomNumber",
      "outputs": [
        {
          "internalType": "uint256",
          "name": "",
          "type": "uint256"
        }
      ],
      "stateMutability": "view",
      "type": "function"
    },
    {
      "inputs": [
        {
          "internalType": "uint256",
          "name": "tokenId",
          "type": "uint256"
        }
      ],
      "name": "tokenURI",
      "outputs": [
        {
          "internalType": "string",
          "name": "",
          "type": "string"
        }
      ],
      "stateMutability": "view",
      "type": "function"
    },
    {
      "inputs": [
        {
          "internalType": "address",
          "name": "from",
          "type": "address"
        },
        {
          "internalType": "address",
          "name": "to",
          "type": "address"
        },
        {
          "internalType": "uint256",
          "name": "tokenId",
          "type": "uint256"
        }
      ],
      "name": "transferFrom",
      "outputs": [],
      "stateMutability": "nonpayable",
      "type": "function"
    },
    {
      "inputs": [
        {
          "internalType": "address",
          "name": "newOwner",
          "type": "address"
        }
      ],
      "name": "transferOwnership",
      "outputs": [],
      "stateMutability": "nonpayable",
      "type": "function"
    },
    {
      "inputs": [],
      "name": "withdraw",
      "outputs": [],
      "stateMutability": "payable",
      "type": "function"
    }
  ],
  "transactionHash": "0xb2b2d6684b4090424be5a5953312314f2b484aedaea6299a79a7a22f7b393f80",
  "args": [
    "0x6168499c0cFfCaCD319c818142124B7A15E857ab",
    "0x01BE23585060835E02B77ef475b0Cc51aA1e0709",
    "0xd89b2bf150e3b9e13446986e571fb9cab24b13cea0a43ea20a6049a85cc807cc"
  ],
  "numDeployments": 3,
  "solcInputHash": "e03423cc30dc737acd011ba70ce826fe",
  "bytecode": "0x60a0604052620186a0600c60006101000a81548163ffffffff021916908363ffffffff1602179055506003600c60046101000a81548161ffff021916908361ffff1602179055506001600c60066101000a81548163ffffffff021916908363ffffffff1602179055503480156200007557600080fd5b50604051620059e3380380620059e383398181016040528101906200009b919062000917565b826040518060400160405280600981526020017f52616e646f6d53564700000000000000000000000000000000000000000000008152506040518060400160405280600581526020017f7273535647000000000000000000000000000000000000000000000000000000815250816000908051906020019062000120929190620006e6565b50806001908051906020019062000139929190620006e6565b5050508073ffffffffffffffffffffffffffffffffffffffff1660808173ffffffffffffffffffffffffffffffffffffffff1660601b815250505062000194620001886200061860201b60201c565b6200062060201b60201c565b600060088190555080600b819055506101f4600f81905550600a600d819055506005600e8190555060405180604001604052806040518060400160405280600181526020017f4d0000000000000000000000000000000000000000000000000000000000000081525081526020016040518060400160405280600181526020017f4c0000000000000000000000000000000000000000000000000000000000000081525081525060119060026200024d92919062000777565b5067016345785d8a00006010819055506040518060e001604052806040518060400160405280600381526020017f726564000000000000000000000000000000000000000000000000000000000081525081526020016040518060400160405280600581526020017f677265656e00000000000000000000000000000000000000000000000000000081525081526020016040518060400160405280600481526020017f626c75650000000000000000000000000000000000000000000000000000000081525081526020016040518060400160405280600681526020017f79656c6c6f77000000000000000000000000000000000000000000000000000081525081526020016040518060400160405280600681526020017f707572706c65000000000000000000000000000000000000000000000000000081525081526020016040518060400160405280600581526020017f776869746500000000000000000000000000000000000000000000000000000081525081526020016040518060400160405280600581526020017f626c61636b000000000000000000000000000000000000000000000000000000815250815250601290600762000415929190620007de565b5082600960006101000a81548173ffffffffffffffffffffffffffffffffffffffff021916908373ffffffffffffffffffffffffffffffffffffffff16021790555081600a60006101000a81548173ffffffffffffffffffffffffffffffffffffffff021916908373ffffffffffffffffffffffffffffffffffffffff160217905550600960009054906101000a900473ffffffffffffffffffffffffffffffffffffffff1673ffffffffffffffffffffffffffffffffffffffff1663a21a23e46040518163ffffffff1660e01b8152600401602060405180830381600087803b1580156200050357600080fd5b505af115801562000518573d6000803e3d6000fd5b505050506040513d601f19601f820116820180604052508101906200053e91906200096d565b600a60146101000a81548167ffffffffffffffff021916908367ffffffffffffffff160217905550600960009054906101000a900473ffffffffffffffffffffffffffffffffffffffff1673ffffffffffffffffffffffffffffffffffffffff16637341c10c600a60149054906101000a900467ffffffffffffffff16306040518363ffffffff1660e01b8152600401620005db929190620009bb565b600060405180830381600087803b158015620005f657600080fd5b505af11580156200060b573d6000803e3d6000fd5b5050505050505062000aed565b600033905090565b6000600760009054906101000a900473ffffffffffffffffffffffffffffffffffffffff16905081600760006101000a81548173ffffffffffffffffffffffffffffffffffffffff021916908373ffffffffffffffffffffffffffffffffffffffff1602179055508173ffffffffffffffffffffffffffffffffffffffff168173ffffffffffffffffffffffffffffffffffffffff167f8be0079c531659141344cd1fd0a4f28419497f9722a3daafe3b4186f6b6457e060405160405180910390a35050565b828054620006f49062000a3a565b90600052602060002090601f01602090048101928262000718576000855562000764565b82601f106200073357805160ff191683800117855562000764565b8280016001018555821562000764579182015b828111156200076357825182559160200191906001019062000746565b5b50905062000773919062000845565b5090565b828054828255906000526020600020908101928215620007cb579160200282015b82811115620007ca578251829080519060200190620007b9929190620006e6565b509160200191906001019062000798565b5b509050620007da919062000864565b5090565b82805482825590600052602060002090810192821562000832579160200282015b828111156200083157825182908051906020019062000820929190620006e6565b5091602001919060010190620007ff565b5b50905062000841919062000864565b5090565b5b808211156200086057600081600090555060010162000846565b5090565b5b808211156200088857600081816200087e91906200088c565b5060010162000865565b5090565b5080546200089a9062000a3a565b6000825580601f10620008ae5750620008cf565b601f016020900490600052602060002090810190620008ce919062000845565b5b50565b600081519050620008e38162000a9f565b92915050565b600081519050620008fa8162000ab9565b92915050565b600081519050620009118162000ad3565b92915050565b6000806000606084860312156200092d57600080fd5b60006200093d86828701620008d2565b93505060206200095086828701620008d2565b92505060406200096386828701620008e9565b9150509250925092565b6000602082840312156200098057600080fd5b6000620009908482850162000900565b91505092915050565b620009a481620009e8565b82525050565b620009b58162000a26565b82525050565b6000604082019050620009d26000830185620009aa565b620009e1602083018462000999565b9392505050565b6000620009f58262000a06565b9050919050565b6000819050919050565b600073ffffffffffffffffffffffffffffffffffffffff82169050919050565b600067ffffffffffffffff82169050919050565b6000600282049050600182168062000a5357607f821691505b6020821081141562000a6a5762000a6962000a70565b5b50919050565b7f4e487b7100000000000000000000000000000000000000000000000000000000600052602260045260246000fd5b62000aaa81620009e8565b811462000ab657600080fd5b50565b62000ac481620009fc565b811462000ad057600080fd5b50565b62000ade8162000a26565b811462000aea57600080fd5b50565b60805160601c614ed062000b1360003960008181610ad10152610b250152614ed06000f3fe6080604052600436106101e35760003560e01c80638e2de4d311610102578063bd11f69d11610095578063d082e38111610064578063d082e381146106f7578063e985e9c514610722578063efc81a8c1461075f578063f2fde38b1461077d576101e3565b8063bd11f69d14610629578063c106065314610666578063c21bf36f1461068f578063c87b56dd146106ba576101e3565b80639c1cd795116100d15780639c1cd7951461056f578063a035b1fe146105ac578063a22cb465146105d7578063b88d4fde14610600576101e3565b80638e2de4d31461049f578063949d225d146104dc578063955968d41461050757806395d89b4114610544576101e3565b80633ccfd60b1161017a5780636352211e116101495780636352211e146103e357806370a0823114610420578063715018a61461045d5780638da5cb5b14610474576101e3565b80633ccfd60b1461035c57806342842e0e1461036657806348e896ab1461038f578063624194c7146103ba576101e3565b8063095ea7b3116101b6578063095ea7b3146102ca5780631fe543e3146102f357806323b872dd1461031c57806324e9edb014610345576101e3565b806301ffc9a7146101e857806306fdde03146102255780630750b16314610250578063081812fc1461028d575b600080fd5b3480156101f457600080fd5b5061020f600480360381019061020a91906135d4565b6107a6565b60405161021c9190613e33565b60405180910390f35b34801561023157600080fd5b5061023a610888565b6040516102479190613ea1565b60405180910390f35b34801561025c57600080fd5b5061027760048036038101906102729190613626565b61091a565b6040516102849190614183565b60405180910390f35b34801561029957600080fd5b506102b460048036038101906102af9190613626565b610932565b6040516102c19190613d65565b60405180910390f35b3480156102d657600080fd5b506102f160048036038101906102ec919061356f565b6109b7565b005b3480156102ff57600080fd5b5061031a60048036038101906103159190613678565b610acf565b005b34801561032857600080fd5b50610343600480360381019061033e9190613469565b610b8f565b005b34801561035157600080fd5b5061035a610bef565b005b610364610d12565b005b34801561037257600080fd5b5061038d60048036038101906103889190613469565b610dde565b005b34801561039b57600080fd5b506103a4610dfe565b6040516103b19190614183565b60405180910390f35b3480156103c657600080fd5b506103e160048036038101906103dc9190613626565b610e04565b005b3480156103ef57600080fd5b5061040a60048036038101906104059190613626565b610f73565b6040516104179190613d65565b60405180910390f35b34801561042c57600080fd5b5061044760048036038101906104429190613404565b611025565b6040516104549190614183565b60405180910390f35b34801561046957600080fd5b506104726110dd565b005b34801561048057600080fd5b50610489611165565b6040516104969190613d65565b60405180910390f35b3480156104ab57600080fd5b506104c660048036038101906104c19190613626565b61118f565b6040516104d39190613d65565b60405180910390f35b3480156104e857600080fd5b506104f16111c2565b6040516104fe9190614183565b60405180910390f35b34801561051357600080fd5b5061052e60048036038101906105299190613626565b6111c8565b60405161053b9190613ea1565b60405180910390f35b34801561055057600080fd5b50610559611274565b6040516105669190613ea1565b60405180910390f35b34801561057b57600080fd5b5061059660048036038101906105919190613626565b611306565b6040516105a39190614183565b60405180910390f35b3480156105b857600080fd5b506105c161131e565b6040516105ce9190614183565b60405180910390f35b3480156105e357600080fd5b506105fe60048036038101906105f99190613533565b611324565b005b34801561060c57600080fd5b50610627600480360381019061062291906134b8565b61133a565b005b34801561063557600080fd5b50610650600480360381019061064b9190613626565b61139c565b60405161065d9190613ea1565b60405180910390f35b34801561067257600080fd5b5061068d60048036038101906106889190613626565b611448565b005b34801561069b57600080fd5b506106a46115d0565b6040516106b19190614183565b60405180910390f35b3480156106c657600080fd5b506106e160048036038101906106dc9190613626565b6115d6565b6040516106ee9190613ea1565b60405180910390f35b34801561070357600080fd5b5061070c611728565b6040516107199190614183565b60405180910390f35b34801561072e57600080fd5b506107496004803603810190610744919061342d565b61172e565b6040516107569190613e33565b60405180910390f35b6107676117c2565b6040516107749190614183565b60405180910390f35b34801561078957600080fd5b506107a4600480360381019061079f9190613404565b6119c7565b005b60007f80ac58cd000000000000000000000000000000000000000000000000000000007bffffffffffffffffffffffffffffffffffffffffffffffffffffffff1916827bffffffffffffffffffffffffffffffffffffffffffffffffffffffff1916148061087157507f5b5e139f000000000000000000000000000000000000000000000000000000007bffffffffffffffffffffffffffffffffffffffffffffffffffffffff1916827bffffffffffffffffffffffffffffffffffffffffffffffffffffffff1916145b80610881575061088082611abf565b5b9050919050565b606060008054610897906144d7565b80601f01602080910402602001604051908101604052809291908181526020018280546108c3906144d7565b80156109105780601f106108e557610100808354040283529160200191610910565b820191906000526020600020905b8154815290600101906020018083116108f357829003601f168201915b5050505050905090565b60146020528060005260406000206000915090505481565b600061093d82611b29565b61097c576040517f08c379a000000000000000000000000000000000000000000000000000000000815260040161097390614083565b60405180910390fd5b6004600083815260200190815260200160002060009054906101000a900473ffffffffffffffffffffffffffffffffffffffff169050919050565b60006109c282610f73565b90508073ffffffffffffffffffffffffffffffffffffffff168373ffffffffffffffffffffffffffffffffffffffff161415610a33576040517f08c379a0000000000000000000000000000000000000000000000000000000008152600401610a2a906140e3565b60405180910390fd5b8073ffffffffffffffffffffffffffffffffffffffff16610a52611b95565b73ffffffffffffffffffffffffffffffffffffffff161480610a815750610a8081610a7b611b95565b61172e565b5b610ac0576040517f08c379a0000000000000000000000000000000000000000000000000000000008152600401610ab790613fa3565b60405180910390fd5b610aca8383611b9d565b505050565b7f000000000000000000000000000000000000000000000000000000000000000073ffffffffffffffffffffffffffffffffffffffff163373ffffffffffffffffffffffffffffffffffffffff1614610b8157337f00000000000000000000000000000000000000000000000000000000000000006040517f1cf993f4000000000000000000000000000000000000000000000000000000008152600401610b78929190613d80565b60405180910390fd5b610b8b8282611c56565b5050565b610ba0610b9a611b95565b82611d9a565b610bdf576040517f08c379a0000000000000000000000000000000000000000000000000000000008152600401610bd690614103565b60405180910390fd5b610bea838383611e78565b505050565b610bf7611b95565b73ffffffffffffffffffffffffffffffffffffffff16610c15611165565b73ffffffffffffffffffffffffffffffffffffffff1614610c6b576040517f08c379a0000000000000000000000000000000000000000000000000000000008152600401610c62906140a3565b60405180910390fd5b600960009054906101000a900473ffffffffffffffffffffffffffffffffffffffff1673ffffffffffffffffffffffffffffffffffffffff1663d7ae1d30600a60149054906101000a900467ffffffffffffffff16336040518363ffffffff1660e01b8152600401610cde9291906141e2565b600060405180830381600087803b158015610cf857600080fd5b505af1158015610d0c573d6000803e3d6000fd5b50505050565b610d1a611b95565b73ffffffffffffffffffffffffffffffffffffffff16610d38611165565b73ffffffffffffffffffffffffffffffffffffffff1614610d8e576040517f08c379a0000000000000000000000000000000000000000000000000000000008152600401610d85906140a3565b60405180910390fd5b610d96611165565b73ffffffffffffffffffffffffffffffffffffffff166108fc479081150290604051600060405180830381858888f19350505050158015610ddb573d6000803e3d6000fd5b50565b610df98383836040518060200160405280600081525061133a565b505050565b600e5481565b6000610e0f826115d6565b511115610e51576040517f08c379a0000000000000000000000000000000000000000000000000000000008152600401610e4890614143565b60405180910390fd5b8060085411610e95576040517f08c379a0000000000000000000000000000000000000000000000000000000008152600401610e8c90614023565b60405180910390fd5b6000601560008381526020019081526020016000205411610eeb576040517f08c379a0000000000000000000000000000000000000000000000000000000008152600401610ee290614163565b60405180910390fd5b6000601560008381526020019081526020016000205490506000610f0e826120df565b90506000610f1b826121e1565b90506000610f288261227a565b9050610f348582612307565b847f15a6487b7915a7116ce2a61d43b17e9b47484b1931f3c79f2f3d139b307b389382604051610f649190613ea1565b60405180910390a25050505050565b6000806002600084815260200190815260200160002060009054906101000a900473ffffffffffffffffffffffffffffffffffffffff169050600073ffffffffffffffffffffffffffffffffffffffff168173ffffffffffffffffffffffffffffffffffffffff16141561101c576040517f08c379a000000000000000000000000000000000000000000000000000000000815260040161101390613fe3565b60405180910390fd5b80915050919050565b60008073ffffffffffffffffffffffffffffffffffffffff168273ffffffffffffffffffffffffffffffffffffffff161415611096576040517f08c379a000000000000000000000000000000000000000000000000000000000815260040161108d90613fc3565b60405180910390fd5b600360008373ffffffffffffffffffffffffffffffffffffffff1673ffffffffffffffffffffffffffffffffffffffff168152602001908152602001600020549050919050565b6110e5611b95565b73ffffffffffffffffffffffffffffffffffffffff16611103611165565b73ffffffffffffffffffffffffffffffffffffffff1614611159576040517f08c379a0000000000000000000000000000000000000000000000000000000008152600401611150906140a3565b60405180910390fd5b611163600061237b565b565b6000600760009054906101000a900473ffffffffffffffffffffffffffffffffffffffff16905090565b60136020528060005260406000206000915054906101000a900473ffffffffffffffffffffffffffffffffffffffff1681565b600f5481565b601181815481106111d857600080fd5b9060005260206000200160009150905080546111f3906144d7565b80601f016020809104026020016040519081016040528092919081815260200182805461121f906144d7565b801561126c5780601f106112415761010080835404028352916020019161126c565b820191906000526020600020905b81548152906001019060200180831161124f57829003601f168201915b505050505081565b606060018054611283906144d7565b80601f01602080910402602001604051908101604052809291908181526020018280546112af906144d7565b80156112fc5780601f106112d1576101008083540402835291602001916112fc565b820191906000526020600020905b8154815290600101906020018083116112df57829003601f168201915b5050505050905090565b60156020528060005260406000206000915090505481565b60105481565b61133661132f611b95565b8383612441565b5050565b61134b611345611b95565b83611d9a565b61138a576040517f08c379a000000000000000000000000000000000000000000000000000000000815260040161138190614103565b60405180910390fd5b611396848484846125ae565b50505050565b601281815481106113ac57600080fd5b9060005260206000200160009150905080546113c7906144d7565b80601f01602080910402602001604051908101604052809291908181526020018280546113f3906144d7565b80156114405780601f1061141557610100808354040283529160200191611440565b820191906000526020600020905b81548152906001019060200180831161142357829003601f168201915b505050505081565b611450611b95565b73ffffffffffffffffffffffffffffffffffffffff1661146e611165565b73ffffffffffffffffffffffffffffffffffffffff16146114c4576040517f08c379a00000000000000000000000000000000000000000000000000000000081526004016114bb906140a3565b60405180910390fd5b600a60009054906101000a900473ffffffffffffffffffffffffffffffffffffffff1673ffffffffffffffffffffffffffffffffffffffff16634000aea0600960009054906101000a900473ffffffffffffffffffffffffffffffffffffffff1683600a60149054906101000a900467ffffffffffffffff1660405160200161154d91906141c7565b6040516020818303038152906040526040518463ffffffff1660e01b815260040161157a93929190613df5565b602060405180830381600087803b15801561159457600080fd5b505af11580156115a8573d6000803e3d6000fd5b505050506040513d601f19601f820116820180604052508101906115cc91906135ab565b5050565b600d5481565b60606115e182611b29565b611620576040517f08c379a000000000000000000000000000000000000000000000000000000000815260040161161790614063565b60405180910390fd5b6000600660008481526020019081526020016000208054611640906144d7565b80601f016020809104026020016040519081016040528092919081815260200182805461166c906144d7565b80156116b95780601f1061168e576101008083540402835291602001916116b9565b820191906000526020600020905b81548152906001019060200180831161169c57829003601f168201915b5050505050905060006116ca61260a565b90506000815114156116e0578192505050611723565b6000825111156117155780826040516020016116fd929190613c2c565b60405160208183030381529060405292505050611723565b61171e84612621565b925050505b919050565b60085481565b6000600560008473ffffffffffffffffffffffffffffffffffffffff1673ffffffffffffffffffffffffffffffffffffffff16815260200190815260200160002060008373ffffffffffffffffffffffffffffffffffffffff1673ffffffffffffffffffffffffffffffffffffffff16815260200190815260200160002060009054906101000a900460ff16905092915050565b6000601054341015611809576040517f08c379a000000000000000000000000000000000000000000000000000000000815260040161180090614123565b60405180910390fd5b600960009054906101000a900473ffffffffffffffffffffffffffffffffffffffff1673ffffffffffffffffffffffffffffffffffffffff16635d3b1d30600b54600a60149054906101000a900467ffffffffffffffff16600c60049054906101000a900461ffff16600c60009054906101000a900463ffffffff16600c60069054906101000a900463ffffffff166040518663ffffffff1660e01b81526004016118b8959493929190613e4e565b602060405180830381600087803b1580156118d257600080fd5b505af11580156118e6573d6000803e3d6000fd5b505050506040513d601f19601f8201168201806040525081019061190a919061364f565b905060006008549050336013600084815260200190815260200160002060006101000a81548173ffffffffffffffffffffffffffffffffffffffff021916908373ffffffffffffffffffffffffffffffffffffffff160217905550806014600084815260200190815260200160002081905550600860008154809291906119909061453a565b919050555080827f9da193a1b7c9b300287c8578c0b6537844f585cb1c5079cbf4dcc41765a1ccdc60405160405180910390a35090565b6119cf611b95565b73ffffffffffffffffffffffffffffffffffffffff166119ed611165565b73ffffffffffffffffffffffffffffffffffffffff1614611a43576040517f08c379a0000000000000000000000000000000000000000000000000000000008152600401611a3a906140a3565b60405180910390fd5b600073ffffffffffffffffffffffffffffffffffffffff168173ffffffffffffffffffffffffffffffffffffffff161415611ab3576040517f08c379a0000000000000000000000000000000000000000000000000000000008152600401611aaa90613ee3565b60405180910390fd5b611abc8161237b565b50565b60007f01ffc9a7000000000000000000000000000000000000000000000000000000007bffffffffffffffffffffffffffffffffffffffffffffffffffffffff1916827bffffffffffffffffffffffffffffffffffffffffffffffffffffffff1916149050919050565b60008073ffffffffffffffffffffffffffffffffffffffff166002600084815260200190815260200160002060009054906101000a900473ffffffffffffffffffffffffffffffffffffffff1673ffffffffffffffffffffffffffffffffffffffff1614159050919050565b600033905090565b816004600083815260200190815260200160002060006101000a81548173ffffffffffffffffffffffffffffffffffffffff021916908373ffffffffffffffffffffffffffffffffffffffff160217905550808273ffffffffffffffffffffffffffffffffffffffff16611c1083610f73565b73ffffffffffffffffffffffffffffffffffffffff167f8c5be1e5ebec7d5bd14f71427d1e84f3dd0314c0f7b2291e5b200ac8c7c3b92560405160405180910390a45050565b60006013600084815260200190815260200160002060009054906101000a900473ffffffffffffffffffffffffffffffffffffffff169050600060146000858152602001908152602001600020549050600083600081518110611ce2577f4e487b7100000000000000000000000000000000000000000000000000000000600052603260045260246000fd5b60200260200101519050611cf683836126c8565b8060156000848152602001908152602001600020819055506013600086815260200190815260200160002060006101000a81549073ffffffffffffffffffffffffffffffffffffffff02191690556014600086815260200190815260200160002060009055817faad5362ce528ed941024b95d4c18dfd49b8503e1f586a5c353631d98c2af41b782604051611d8b9190614183565b60405180910390a25050505050565b6000611da582611b29565b611de4576040517f08c379a0000000000000000000000000000000000000000000000000000000008152600401611ddb90613f83565b60405180910390fd5b6000611def83610f73565b90508073ffffffffffffffffffffffffffffffffffffffff168473ffffffffffffffffffffffffffffffffffffffff161480611e5e57508373ffffffffffffffffffffffffffffffffffffffff16611e4684610932565b73ffffffffffffffffffffffffffffffffffffffff16145b80611e6f5750611e6e818561172e565b5b91505092915050565b8273ffffffffffffffffffffffffffffffffffffffff16611e9882610f73565b73ffffffffffffffffffffffffffffffffffffffff1614611eee576040517f08c379a0000000000000000000000000000000000000000000000000000000008152600401611ee590613f03565b60405180910390fd5b600073ffffffffffffffffffffffffffffffffffffffff168273ffffffffffffffffffffffffffffffffffffffff161415611f5e576040517f08c379a0000000000000000000000000000000000000000000000000000000008152600401611f5590613f43565b60405180910390fd5b611f698383836126e6565b611f74600082611b9d565b6001600360008573ffffffffffffffffffffffffffffffffffffffff1673ffffffffffffffffffffffffffffffffffffffff1681526020019081526020016000206000828254611fc491906143b1565b925050819055506001600360008473ffffffffffffffffffffffffffffffffffffffff1673ffffffffffffffffffffffffffffffffffffffff168152602001908152602001600020600082825461201b91906142d0565b92505081905550816002600083815260200190815260200160002060006101000a81548173ffffffffffffffffffffffffffffffffffffffff021916908373ffffffffffffffffffffffffffffffffffffffff160217905550808273ffffffffffffffffffffffffffffffffffffffff168473ffffffffffffffffffffffffffffffffffffffff167fddf252ad1be2c89b69c2b068fc378daa952ba7f163c4a11628f55a4df523b3ef60405160405180910390a46120da8383836126eb565b505050565b606060006001600d54846120f39190614583565b6120fd91906142d0565b905061210a600f546126f0565b612115600f546126f0565b604051602001612126929190613d20565b604051602081830303815290604052915060005b818110156121b8576000848260405160200161215792919061419e565b6040516020818303038152906040528051906020012060001c9050600061217d8261289d565b90508481604051602001612192929190613c2c565b6040516020818303038152906040529450505080806121b09061453a565b91505061213a565b50816040516020016121ca9190613cd1565b604051602081830303815290604052915050919050565b606060006040518060400160405280601a81526020017f646174613a696d6167652f7376672b786d6c3b6261736536342c00000000000081525090506000612247846040516020016122339190613c15565b604051602081830303815290604052612a8f565b90506000828260405160200161225e929190613c2c565b6040516020818303038152906040529050809350505050919050565b606060006040518060400160405280601d81526020017f646174613a6170706c69636174696f6e2f6a736f6e3b6261736536342c0000008152509050806122df846040516020016122cb9190613cf3565b604051602081830303815290604052612a8f565b6040516020016122f0929190613c2c565b604051602081830303815290604052915050919050565b61231082611b29565b61234f576040517f08c379a000000000000000000000000000000000000000000000000000000000815260040161234690614003565b60405180910390fd5b806006600084815260200190815260200160002090805190602001906123769291906131d0565b505050565b6000600760009054906101000a900473ffffffffffffffffffffffffffffffffffffffff16905081600760006101000a81548173ffffffffffffffffffffffffffffffffffffffff021916908373ffffffffffffffffffffffffffffffffffffffff1602179055508173ffffffffffffffffffffffffffffffffffffffff168173ffffffffffffffffffffffffffffffffffffffff167f8be0079c531659141344cd1fd0a4f28419497f9722a3daafe3b4186f6b6457e060405160405180910390a35050565b8173ffffffffffffffffffffffffffffffffffffffff168373ffffffffffffffffffffffffffffffffffffffff1614156124b0576040517f08c379a00000000000000000000000000000000000000000000000000000000081526004016124a790613f63565b60405180910390fd5b80600560008573ffffffffffffffffffffffffffffffffffffffff1673ffffffffffffffffffffffffffffffffffffffff16815260200190815260200160002060008473ffffffffffffffffffffffffffffffffffffffff1673ffffffffffffffffffffffffffffffffffffffff16815260200190815260200160002060006101000a81548160ff0219169083151502179055508173ffffffffffffffffffffffffffffffffffffffff168373ffffffffffffffffffffffffffffffffffffffff167f17307eab39ab6107e8899845ad3d59bd9653f200f220920489ca2b5937696c31836040516125a19190613e33565b60405180910390a3505050565b6125b9848484611e78565b6125c584848484612c2e565b612604576040517f08c379a00000000000000000000000000000000000000000000000000000000081526004016125fb90613ec3565b60405180910390fd5b50505050565b606060405180602001604052806000815250905090565b606061262c82611b29565b61266b576040517f08c379a0000000000000000000000000000000000000000000000000000000008152600401612662906140c3565b60405180910390fd5b600061267561260a565b9050600081511161269557604051806020016040528060008152506126c0565b8061269f846126f0565b6040516020016126b0929190613c2c565b6040516020818303038152906040525b915050919050565b6126e2828260405180602001604052806000815250612dc5565b5050565b505050565b505050565b60606000821415612738576040518060400160405280600181526020017f30000000000000000000000000000000000000000000000000000000000000008152509050612898565b600082905060005b6000821461276a5780806127539061453a565b915050600a826127639190614326565b9150612740565b60008167ffffffffffffffff8111156127ac577f4e487b7100000000000000000000000000000000000000000000000000000000600052604160045260246000fd5b6040519080825280601f01601f1916602001820160405280156127de5781602001600182028036833780820191505090505b5090505b60008514612891576001826127f791906143b1565b9150600a856128069190614583565b603061281291906142d0565b60f81b81838151811061284e577f4e487b7100000000000000000000000000000000000000000000000000000000600052603260045260246000fd5b60200101907effffffffffffffffffffffffffffffffffffffffffffffffffffffffffffff1916908160001a905350600a8561288a9190614326565b94506127e2565b8093505050505b919050565b606060006001600e54846128b19190614583565b6128bb91906142d0565b90506040518060400160405280600981526020017f3c7061746820643d270000000000000000000000000000000000000000000000815250915060005b818110156129835760008482600f5461291191906142d0565b60405160200161292292919061419e565b6040516020818303038152906040528051906020012060001c9050600061294882612e20565b9050848160405160200161295d929190613c2c565b60405160208183030381529060405294505050808061297b9061453a565b9150506128f8565b50600060128080549050856129989190614583565b815481106129cf577f4e487b7100000000000000000000000000000000000000000000000000000000600052603260045260246000fd5b9060005260206000200180546129e4906144d7565b80601f0160208091040260200160405190810160405280929190818152602001828054612a10906144d7565b8015612a5d5780601f10612a3257610100808354040283529160200191612a5d565b820191906000526020600020905b815481529060010190602001808311612a4057829003601f168201915b505050505090508281604051602001612a77929190613c97565b60405160208183030381529060405292505050919050565b6060600082511415612ab257604051806020016040528060008152509050612c29565b6000604051806060016040528060408152602001614e5b6040913990506000600360028551612ae191906142d0565b612aeb9190614326565b6004612af79190614357565b90506000602082612b0891906142d0565b67ffffffffffffffff811115612b47577f4e487b7100000000000000000000000000000000000000000000000000000000600052604160045260246000fd5b6040519080825280601f01601f191660200182016040528015612b795781602001600182028036833780820191505090505b509050818152600183018586518101602084015b81831015612be8576003830192508251603f8160121c168501518253600182019150603f81600c1c168501518253600182019150603f8160061c168501518253600182019150603f8116850151825360018201915050612b8d565b600389510660018114612c025760028114612c1257612c1d565b613d3d60f01b6002830352612c1d565b603d60f81b60018303525b50505050508093505050505b919050565b6000612c4f8473ffffffffffffffffffffffffffffffffffffffff16612fd3565b15612db8578373ffffffffffffffffffffffffffffffffffffffff1663150b7a02612c78611b95565b8786866040518563ffffffff1660e01b8152600401612c9a9493929190613da9565b602060405180830381600087803b158015612cb457600080fd5b505af1925050508015612ce557506040513d601f19601f82011682018060405250810190612ce291906135fd565b60015b612d68573d8060008114612d15576040519150601f19603f3d011682016040523d82523d6000602084013e612d1a565b606091505b50600081511415612d60576040517f08c379a0000000000000000000000000000000000000000000000000000000008152600401612d5790613ec3565b60405180910390fd5b805181602001fd5b63150b7a0260e01b7bffffffffffffffffffffffffffffffffffffffffffffffffffffffff1916817bffffffffffffffffffffffffffffffffffffffffffffffffffffffff191614915050612dbd565b600190505b949350505050565b612dcf8383612ff6565b612ddc6000848484612c2e565b612e1b576040517f08c379a0000000000000000000000000000000000000000000000000000000008152600401612e1290613ec3565b60405180910390fd5b505050565b60606011808054905083612e349190614583565b81548110612e6b577f4e487b7100000000000000000000000000000000000000000000000000000000600052603260045260246000fd5b906000526020600020018054612e80906144d7565b80601f0160208091040260200160405190810160405280929190818152602001828054612eac906144d7565b8015612ef95780601f10612ece57610100808354040283529160200191612ef9565b820191906000526020600020905b815481529060010190602001808311612edc57829003601f168201915b505050505090506000612f51600f54846002600f54612f189190614357565b604051602001612f2992919061419e565b6040516020818303038152906040528051906020012060001c612f4c9190614583565b6126f0565b90506000612fa4600f54856003600f54612f6b9190614357565b604051602001612f7c92919061419e565b6040516020818303038152906040528051906020012060001c612f9f9190614583565b6126f0565b9050828282604051602001612fbb93929190613c50565b60405160208183030381529060405292505050919050565b6000808273ffffffffffffffffffffffffffffffffffffffff163b119050919050565b600073ffffffffffffffffffffffffffffffffffffffff168273ffffffffffffffffffffffffffffffffffffffff161415613066576040517f08c379a000000000000000000000000000000000000000000000000000000000815260040161305d90614043565b60405180910390fd5b61306f81611b29565b156130af576040517f08c379a00000000000000000000000000000000000000000000000000000000081526004016130a690613f23565b60405180910390fd5b6130bb600083836126e6565b6001600360008473ffffffffffffffffffffffffffffffffffffffff1673ffffffffffffffffffffffffffffffffffffffff168152602001908152602001600020600082825461310b91906142d0565b92505081905550816002600083815260200190815260200160002060006101000a81548173ffffffffffffffffffffffffffffffffffffffff021916908373ffffffffffffffffffffffffffffffffffffffff160217905550808273ffffffffffffffffffffffffffffffffffffffff16600073ffffffffffffffffffffffffffffffffffffffff167fddf252ad1be2c89b69c2b068fc378daa952ba7f163c4a11628f55a4df523b3ef60405160405180910390a46131cc600083836126eb565b5050565b8280546131dc906144d7565b90600052602060002090601f0160209004810192826131fe5760008555613245565b82601f1061321757805160ff1916838001178555613245565b82800160010185558215613245579182015b82811115613244578251825591602001919060010190613229565b5b5090506132529190613256565b5090565b5b8082111561326f576000816000905550600101613257565b5090565b600061328661328184614230565b61420b565b905080838252602082019050828560208602820111156132a557600080fd5b60005b858110156132d557816132bb88826133da565b8452602084019350602083019250506001810190506132a8565b5050509392505050565b60006132f26132ed8461425c565b61420b565b90508281526020810184848401111561330a57600080fd5b613315848285614495565b509392505050565b60008135905061332c81614dfe565b92915050565b600082601f83011261334357600080fd5b8135613353848260208601613273565b91505092915050565b60008135905061336b81614e15565b92915050565b60008151905061338081614e15565b92915050565b60008135905061339581614e2c565b92915050565b6000815190506133aa81614e2c565b92915050565b600082601f8301126133c157600080fd5b81356133d18482602086016132df565b91505092915050565b6000813590506133e981614e43565b92915050565b6000815190506133fe81614e43565b92915050565b60006020828403121561341657600080fd5b60006134248482850161331d565b91505092915050565b6000806040838503121561344057600080fd5b600061344e8582860161331d565b925050602061345f8582860161331d565b9150509250929050565b60008060006060848603121561347e57600080fd5b600061348c8682870161331d565b935050602061349d8682870161331d565b92505060406134ae868287016133da565b9150509250925092565b600080600080608085870312156134ce57600080fd5b60006134dc8782880161331d565b94505060206134ed8782880161331d565b93505060406134fe878288016133da565b925050606085013567ffffffffffffffff81111561351b57600080fd5b613527878288016133b0565b91505092959194509250565b6000806040838503121561354657600080fd5b60006135548582860161331d565b92505060206135658582860161335c565b9150509250929050565b6000806040838503121561358257600080fd5b60006135908582860161331d565b92505060206135a1858286016133da565b9150509250929050565b6000602082840312156135bd57600080fd5b60006135cb84828501613371565b91505092915050565b6000602082840312156135e657600080fd5b60006135f484828501613386565b91505092915050565b60006020828403121561360f57600080fd5b600061361d8482850161339b565b91505092915050565b60006020828403121561363857600080fd5b6000613646848285016133da565b91505092915050565b60006020828403121561366157600080fd5b600061366f848285016133ef565b91505092915050565b6000806040838503121561368b57600080fd5b6000613699858286016133da565b925050602083013567ffffffffffffffff8111156136b657600080fd5b6136c285828601613332565b9150509250929050565b6136d5816143e5565b82525050565b6136e4816143f7565b82525050565b6136f381614403565b82525050565b60006137048261428d565b61370e81856142a3565b935061371e8185602086016144a4565b61372781614670565b840191505092915050565b600061373d82614298565b61374781856142b4565b93506137578185602086016144a4565b61376081614670565b840191505092915050565b600061377682614298565b61378081856142c5565b93506137908185602086016144a4565b80840191505092915050565b60006137a96032836142b4565b91506137b482614681565b604082019050919050565b60006137cc6026836142b4565b91506137d7826146d0565b604082019050919050565b60006137ef6025836142b4565b91506137fa8261471f565b604082019050919050565b6000613812601c836142b4565b915061381d8261476e565b602082019050919050565b60006138356024836142b4565b915061384082614797565b604082019050919050565b60006138586019836142b4565b9150613863826147e6565b602082019050919050565b600061387b602c836142b4565b91506138868261480f565b604082019050919050565b600061389e601d836142c5565b91506138a98261485e565b601d82019050919050565b60006138c16001836142c5565b91506138cc82614887565b600182019050919050565b60006138e46003836142c5565b91506138ef826148b0565b600382019050919050565b60006139076038836142b4565b9150613912826148d9565b604082019050919050565b600061392a602a836142b4565b915061393582614928565b604082019050919050565b600061394d6029836142b4565b915061395882614977565b604082019050919050565b6000613970602e836142b4565b915061397b826149c6565b604082019050919050565b60006139936053836142c5565b915061399e82614a15565b605382019050919050565b60006139b66020836142b4565b91506139c182614a8a565b602082019050919050565b60006139d96002836142c5565b91506139e482614ab3565b600282019050919050565b60006139fc6020836142b4565b9150613a0782614adc565b602082019050919050565b6000613a1f6031836142b4565b9150613a2a82614b05565b604082019050919050565b6000613a42602c836142b4565b9150613a4d82614b54565b604082019050919050565b6000613a656020836142b4565b9150613a7082614ba3565b602082019050919050565b6000613a886030836142c5565b9150613a9382614bcc565b603082019050919050565b6000613aab602f836142b4565b9150613ab682614c1b565b604082019050919050565b6000613ace6021836142b4565b9150613ad982614c6a565b604082019050919050565b6000613af16031836142b4565b9150613afc82614cb9565b604082019050919050565b6000613b146015836142b4565b9150613b1f82614d08565b602082019050919050565b6000613b376002836142c5565b9150613b4282614d31565b600282019050919050565b6000613b5a6018836142b4565b9150613b6582614d5a565b602082019050919050565b6000613b7d6006836142c5565b9150613b8882614d83565b600682019050919050565b6000613ba0601e836142b4565b9150613bab82614dac565b602082019050919050565b6000613bc36009836142c5565b9150613bce82614dd5565b600982019050919050565b613be281614439565b82525050565b613bf181614467565b82525050565b613c0081614471565b82525050565b613c0f81614481565b82525050565b6000613c21828461376b565b915081905092915050565b6000613c38828561376b565b9150613c44828461376b565b91508190509392505050565b6000613c5c828661376b565b9150613c68828561376b565b9150613c73826138b4565b9150613c7f828461376b565b9150613c8a826138b4565b9150819050949350505050565b6000613ca3828561376b565b9150613cae82613891565b9150613cba828461376b565b9150613cc5826138d7565b91508190509392505050565b6000613cdd828461376b565b9150613ce882613b70565b915081905092915050565b6000613cfe82613986565b9150613d0a828461376b565b9150613d15826139cc565b915081905092915050565b6000613d2b82613a7b565b9150613d37828561376b565b9150613d4282613bb6565b9150613d4e828461376b565b9150613d5982613b2a565b91508190509392505050565b6000602082019050613d7a60008301846136cc565b92915050565b6000604082019050613d9560008301856136cc565b613da260208301846136cc565b9392505050565b6000608082019050613dbe60008301876136cc565b613dcb60208301866136cc565b613dd86040830185613be8565b8181036060830152613dea81846136f9565b905095945050505050565b6000606082019050613e0a60008301866136cc565b613e176020830185613be8565b8181036040830152613e2981846136f9565b9050949350505050565b6000602082019050613e4860008301846136db565b92915050565b600060a082019050613e6360008301886136ea565b613e706020830187613c06565b613e7d6040830186613bd9565b613e8a6060830185613bf7565b613e976080830184613bf7565b9695505050505050565b60006020820190508181036000830152613ebb8184613732565b905092915050565b60006020820190508181036000830152613edc8161379c565b9050919050565b60006020820190508181036000830152613efc816137bf565b9050919050565b60006020820190508181036000830152613f1c816137e2565b9050919050565b60006020820190508181036000830152613f3c81613805565b9050919050565b60006020820190508181036000830152613f5c81613828565b9050919050565b60006020820190508181036000830152613f7c8161384b565b9050919050565b60006020820190508181036000830152613f9c8161386e565b9050919050565b60006020820190508181036000830152613fbc816138fa565b9050919050565b60006020820190508181036000830152613fdc8161391d565b9050919050565b60006020820190508181036000830152613ffc81613940565b9050919050565b6000602082019050818103600083015261401c81613963565b9050919050565b6000602082019050818103600083015261403c816139a9565b9050919050565b6000602082019050818103600083015261405c816139ef565b9050919050565b6000602082019050818103600083015261407c81613a12565b9050919050565b6000602082019050818103600083015261409c81613a35565b9050919050565b600060208201905081810360008301526140bc81613a58565b9050919050565b600060208201905081810360008301526140dc81613a9e565b9050919050565b600060208201905081810360008301526140fc81613ac1565b9050919050565b6000602082019050818103600083015261411c81613ae4565b9050919050565b6000602082019050818103600083015261413c81613b07565b9050919050565b6000602082019050818103600083015261415c81613b4d565b9050919050565b6000602082019050818103600083015261417c81613b93565b9050919050565b60006020820190506141986000830184613be8565b92915050565b60006040820190506141b36000830185613be8565b6141c06020830184613be8565b9392505050565b60006020820190506141dc6000830184613c06565b92915050565b60006040820190506141f76000830185613c06565b61420460208301846136cc565b9392505050565b6000614215614226565b90506142218282614509565b919050565b6000604051905090565b600067ffffffffffffffff82111561424b5761424a614641565b5b602082029050602081019050919050565b600067ffffffffffffffff82111561427757614276614641565b5b61428082614670565b9050602081019050919050565b600081519050919050565b600081519050919050565b600082825260208201905092915050565b600082825260208201905092915050565b600081905092915050565b60006142db82614467565b91506142e683614467565b9250827fffffffffffffffffffffffffffffffffffffffffffffffffffffffffffffffff0382111561431b5761431a6145b4565b5b828201905092915050565b600061433182614467565b915061433c83614467565b92508261434c5761434b6145e3565b5b828204905092915050565b600061436282614467565b915061436d83614467565b9250817fffffffffffffffffffffffffffffffffffffffffffffffffffffffffffffffff04831182151516156143a6576143a56145b4565b5b828202905092915050565b60006143bc82614467565b91506143c783614467565b9250828210156143da576143d96145b4565b5b828203905092915050565b60006143f082614447565b9050919050565b60008115159050919050565b6000819050919050565b60007fffffffff0000000000000000000000000000000000000000000000000000000082169050919050565b600061ffff82169050919050565b600073ffffffffffffffffffffffffffffffffffffffff82169050919050565b6000819050919050565b600063ffffffff82169050919050565b600067ffffffffffffffff82169050919050565b82818337600083830152505050565b60005b838110156144c25780820151818401526020810190506144a7565b838111156144d1576000848401525b50505050565b600060028204905060018216806144ef57607f821691505b6020821081141561450357614502614612565b5b50919050565b61451282614670565b810181811067ffffffffffffffff8211171561453157614530614641565b5b80604052505050565b600061454582614467565b91507fffffffffffffffffffffffffffffffffffffffffffffffffffffffffffffffff821415614578576145776145b4565b5b600182019050919050565b600061458e82614467565b915061459983614467565b9250826145a9576145a86145e3565b5b828206905092915050565b7f4e487b7100000000000000000000000000000000000000000000000000000000600052601160045260246000fd5b7f4e487b7100000000000000000000000000000000000000000000000000000000600052601260045260246000fd5b7f4e487b7100000000000000000000000000000000000000000000000000000000600052602260045260246000fd5b7f4e487b7100000000000000000000000000000000000000000000000000000000600052604160045260246000fd5b6000601f19601f8301169050919050565b7f4552433732313a207472616e7366657220746f206e6f6e20455243373231526560008201527f63656976657220696d706c656d656e7465720000000000000000000000000000602082015250565b7f4f776e61626c653a206e6577206f776e657220697320746865207a65726f206160008201527f6464726573730000000000000000000000000000000000000000000000000000602082015250565b7f4552433732313a207472616e736665722066726f6d20696e636f72726563742060008201527f6f776e6572000000000000000000000000000000000000000000000000000000602082015250565b7f4552433732313a20746f6b656e20616c7265616479206d696e74656400000000600082015250565b7f4552433732313a207472616e7366657220746f20746865207a65726f2061646460008201527f7265737300000000000000000000000000000000000000000000000000000000602082015250565b7f4552433732313a20617070726f766520746f2063616c6c657200000000000000600082015250565b7f4552433732313a206f70657261746f7220717565727920666f72206e6f6e657860008201527f697374656e7420746f6b656e0000000000000000000000000000000000000000602082015250565b7f272066696c6c3d277472616e73706172656e7427207374726f6b653d27000000600082015250565b7f2000000000000000000000000000000000000000000000000000000000000000600082015250565b7f272f3e0000000000000000000000000000000000000000000000000000000000600082015250565b7f4552433732313a20617070726f76652063616c6c6572206973206e6f74206f7760008201527f6e6572206e6f7220617070726f76656420666f7220616c6c0000000000000000602082015250565b7f4552433732313a2062616c616e636520717565727920666f7220746865207a6560008201527f726f206164647265737300000000000000000000000000000000000000000000602082015250565b7f4552433732313a206f776e657220717565727920666f72206e6f6e657869737460008201527f656e7420746f6b656e0000000000000000000000000000000000000000000000602082015250565b7f45524337323155524953746f726167653a2055524920736574206f66206e6f6e60008201527f6578697374656e7420746f6b656e000000000000000000000000000000000000602082015250565b7f7b226e616d65223a22535647204e4654222c20226465736372697074696f6e2260008201527f3a22416e204e4654206261736564206f6e2053564721222c202261747472696260208201527f75746573223a22222c2022696d616765223a2200000000000000000000000000604082015250565b7f546f6b656e496420686173206e6f74206265656e206d696e7465642079657421600082015250565b7f227d000000000000000000000000000000000000000000000000000000000000600082015250565b7f4552433732313a206d696e7420746f20746865207a65726f2061646472657373600082015250565b7f45524337323155524953746f726167653a2055524920717565727920666f722060008201527f6e6f6e6578697374656e7420746f6b656e000000000000000000000000000000602082015250565b7f4552433732313a20617070726f76656420717565727920666f72206e6f6e657860008201527f697374656e7420746f6b656e0000000000000000000000000000000000000000602082015250565b7f4f776e61626c653a2063616c6c6572206973206e6f7420746865206f776e6572600082015250565b7f3c73766720786d6c6e733d27687474703a2f2f7777772e77332e6f72672f323060008201527f30302f73766727206865696768743d2700000000000000000000000000000000602082015250565b7f4552433732314d657461646174613a2055524920717565727920666f72206e6f60008201527f6e6578697374656e7420746f6b656e0000000000000000000000000000000000602082015250565b7f4552433732313a20617070726f76616c20746f2063757272656e74206f776e6560008201527f7200000000000000000000000000000000000000000000000000000000000000602082015250565b7f4552433732313a207472616e736665722063616c6c6572206973206e6f74206f60008201527f776e6572206e6f7220617070726f766564000000000000000000000000000000602082015250565b7f4e65656420746f2073656e64206d6f7265204554480000000000000000000000600082015250565b7f273e000000000000000000000000000000000000000000000000000000000000600082015250565b7f546f6b656e2055524920697320616c7265616479207365740000000000000000600082015250565b7f3c2f7376673e0000000000000000000000000000000000000000000000000000600082015250565b7f4e65656420746f207761697420666f7220436861696e6c696e6b205652460000600082015250565b7f272077696474683d270000000000000000000000000000000000000000000000600082015250565b614e07816143e5565b8114614e1257600080fd5b50565b614e1e816143f7565b8114614e2957600080fd5b50565b614e358161440d565b8114614e4057600080fd5b50565b614e4c81614467565b8114614e5757600080fd5b5056fe4142434445464748494a4b4c4d4e4f505152535455565758595a6162636465666768696a6b6c6d6e6f707172737475767778797a303132333435363738392b2fa264697066735822122069bdeccf45ab3ca3e6feb976d0709b5eebdb9631562f224dfcb012dc2a4b6edb64736f6c63430008040033",
  "devdoc": {
    "kind": "dev",
    "methods": {
      "approve(address,uint256)": {
        "details": "See {IERC721-approve}."
      },
      "balanceOf(address)": {
        "details": "See {IERC721-balanceOf}."
      },
      "getApproved(uint256)": {
        "details": "See {IERC721-getApproved}."
      },
      "isApprovedForAll(address,address)": {
        "details": "See {IERC721-isApprovedForAll}."
      },
      "name()": {
        "details": "See {IERC721Metadata-name}."
      },
      "owner()": {
        "details": "Returns the address of the current owner."
      },
      "ownerOf(uint256)": {
        "details": "See {IERC721-ownerOf}."
      },
      "renounceOwnership()": {
        "details": "Leaves the contract without owner. It will not be possible to call `onlyOwner` functions anymore. Can only be called by the current owner. NOTE: Renouncing ownership will leave the contract without an owner, thereby removing any functionality that is only available to the owner."
      },
      "safeTransferFrom(address,address,uint256)": {
        "details": "See {IERC721-safeTransferFrom}."
      },
      "safeTransferFrom(address,address,uint256,bytes)": {
        "details": "See {IERC721-safeTransferFrom}."
      },
      "setApprovalForAll(address,bool)": {
        "details": "See {IERC721-setApprovalForAll}."
      },
      "supportsInterface(bytes4)": {
        "details": "See {IERC165-supportsInterface}."
      },
      "symbol()": {
        "details": "See {IERC721Metadata-symbol}."
      },
      "tokenURI(uint256)": {
        "details": "See {IERC721Metadata-tokenURI}."
      },
      "transferFrom(address,address,uint256)": {
        "details": "See {IERC721-transferFrom}."
      },
      "transferOwnership(address)": {
        "details": "Transfers ownership of the contract to a new account (`newOwner`). Can only be called by the current owner."
      }
    },
    "version": 1
  },
  "userdoc": {
    "kind": "user",
    "methods": {},
    "version": 1
  },
  "storageLayout": {
    "storage": [
      {
        "astId": 372,
        "contract": "contracts/RandomNFT.sol:RandomSVG",
        "label": "_name",
        "offset": 0,
        "slot": "0",
        "type": "t_string_storage"
      },
      {
        "astId": 374,
        "contract": "contracts/RandomNFT.sol:RandomSVG",
        "label": "_symbol",
        "offset": 0,
        "slot": "1",
        "type": "t_string_storage"
      },
      {
        "astId": 378,
        "contract": "contracts/RandomNFT.sol:RandomSVG",
        "label": "_owners",
        "offset": 0,
        "slot": "2",
        "type": "t_mapping(t_uint256,t_address)"
      },
      {
        "astId": 382,
        "contract": "contracts/RandomNFT.sol:RandomSVG",
        "label": "_balances",
        "offset": 0,
        "slot": "3",
        "type": "t_mapping(t_address,t_uint256)"
      },
      {
        "astId": 386,
        "contract": "contracts/RandomNFT.sol:RandomSVG",
        "label": "_tokenApprovals",
        "offset": 0,
        "slot": "4",
        "type": "t_mapping(t_uint256,t_address)"
      },
      {
        "astId": 392,
        "contract": "contracts/RandomNFT.sol:RandomSVG",
        "label": "_operatorApprovals",
        "offset": 0,
        "slot": "5",
        "type": "t_mapping(t_address,t_mapping(t_address,t_bool))"
      },
      {
        "astId": 1359,
        "contract": "contracts/RandomNFT.sol:RandomSVG",
        "label": "_tokenURIs",
        "offset": 0,
        "slot": "6",
        "type": "t_mapping(t_uint256,t_string_storage)"
      },
      {
        "astId": 249,
        "contract": "contracts/RandomNFT.sol:RandomSVG",
        "label": "_owner",
        "offset": 0,
        "slot": "7",
        "type": "t_address"
      },
      {
        "astId": 2189,
        "contract": "contracts/RandomNFT.sol:RandomSVG",
        "label": "tokenCounter",
        "offset": 0,
        "slot": "8",
        "type": "t_uint256"
      },
      {
        "astId": 2192,
        "contract": "contracts/RandomNFT.sol:RandomSVG",
        "label": "COORDINATOR",
        "offset": 0,
        "slot": "9",
        "type": "t_contract(VRFCoordinatorV2Interface)241"
      },
      {
        "astId": 2195,
        "contract": "contracts/RandomNFT.sol:RandomSVG",
        "label": "LINKTOKEN",
        "offset": 0,
        "slot": "10",
        "type": "t_contract(LinkTokenInterface)152"
      },
      {
        "astId": 2197,
        "contract": "contracts/RandomNFT.sol:RandomSVG",
        "label": "subscriptionId",
        "offset": 20,
        "slot": "10",
        "type": "t_uint64"
      },
      {
        "astId": 2199,
        "contract": "contracts/RandomNFT.sol:RandomSVG",
        "label": "keyHash",
        "offset": 0,
        "slot": "11",
        "type": "t_bytes32"
      },
      {
        "astId": 2202,
        "contract": "contracts/RandomNFT.sol:RandomSVG",
        "label": "callbackGasLimit",
        "offset": 0,
        "slot": "12",
        "type": "t_uint32"
      },
      {
        "astId": 2205,
        "contract": "contracts/RandomNFT.sol:RandomSVG",
        "label": "requestConfirmations",
        "offset": 4,
        "slot": "12",
        "type": "t_uint16"
      },
      {
        "astId": 2208,
        "contract": "contracts/RandomNFT.sol:RandomSVG",
        "label": "numWords",
        "offset": 6,
        "slot": "12",
        "type": "t_uint32"
      },
      {
        "astId": 2210,
        "contract": "contracts/RandomNFT.sol:RandomSVG",
        "label": "maxNumberOfPaths",
        "offset": 0,
        "slot": "13",
        "type": "t_uint256"
      },
      {
        "astId": 2212,
        "contract": "contracts/RandomNFT.sol:RandomSVG",
        "label": "maxNumberOfPathCommands",
        "offset": 0,
        "slot": "14",
        "type": "t_uint256"
      },
      {
        "astId": 2214,
        "contract": "contracts/RandomNFT.sol:RandomSVG",
        "label": "size",
        "offset": 0,
        "slot": "15",
        "type": "t_uint256"
      },
      {
        "astId": 2216,
        "contract": "contracts/RandomNFT.sol:RandomSVG",
        "label": "price",
        "offset": 0,
        "slot": "16",
        "type": "t_uint256"
      },
      {
        "astId": 2219,
        "contract": "contracts/RandomNFT.sol:RandomSVG",
        "label": "pathCommands",
        "offset": 0,
        "slot": "17",
        "type": "t_array(t_string_storage)dyn_storage"
      },
      {
        "astId": 2222,
        "contract": "contracts/RandomNFT.sol:RandomSVG",
        "label": "colors",
        "offset": 0,
        "slot": "18",
        "type": "t_array(t_string_storage)dyn_storage"
      },
      {
        "astId": 2226,
        "contract": "contracts/RandomNFT.sol:RandomSVG",
        "label": "requestIdToSender",
        "offset": 0,
        "slot": "19",
        "type": "t_mapping(t_uint256,t_address)"
      },
      {
        "astId": 2230,
        "contract": "contracts/RandomNFT.sol:RandomSVG",
        "label": "requestIdToTokenId",
        "offset": 0,
        "slot": "20",
        "type": "t_mapping(t_uint256,t_uint256)"
      },
      {
        "astId": 2234,
        "contract": "contracts/RandomNFT.sol:RandomSVG",
        "label": "tokenIdToRandomNumber",
        "offset": 0,
        "slot": "21",
        "type": "t_mapping(t_uint256,t_uint256)"
      }
    ],
    "types": {
      "t_address": {
        "encoding": "inplace",
        "label": "address",
        "numberOfBytes": "20"
      },
      "t_array(t_string_storage)dyn_storage": {
        "base": "t_string_storage",
        "encoding": "dynamic_array",
        "label": "string[]",
        "numberOfBytes": "32"
      },
      "t_bool": {
        "encoding": "inplace",
        "label": "bool",
        "numberOfBytes": "1"
      },
      "t_bytes32": {
        "encoding": "inplace",
        "label": "bytes32",
        "numberOfBytes": "32"
      },
      "t_contract(LinkTokenInterface)152": {
        "encoding": "inplace",
        "label": "contract LinkTokenInterface",
        "numberOfBytes": "20"
      },
      "t_contract(VRFCoordinatorV2Interface)241": {
        "encoding": "inplace",
        "label": "contract VRFCoordinatorV2Interface",
        "numberOfBytes": "20"
      },
      "t_mapping(t_address,t_bool)": {
        "encoding": "mapping",
        "key": "t_address",
        "label": "mapping(address => bool)",
        "numberOfBytes": "32",
        "value": "t_bool"
      },
      "t_mapping(t_address,t_mapping(t_address,t_bool))": {
        "encoding": "mapping",
        "key": "t_address",
        "label": "mapping(address => mapping(address => bool))",
        "numberOfBytes": "32",
        "value": "t_mapping(t_address,t_bool)"
      },
      "t_mapping(t_address,t_uint256)": {
        "encoding": "mapping",
        "key": "t_address",
        "label": "mapping(address => uint256)",
        "numberOfBytes": "32",
        "value": "t_uint256"
      },
      "t_mapping(t_uint256,t_address)": {
        "encoding": "mapping",
        "key": "t_uint256",
        "label": "mapping(uint256 => address)",
        "numberOfBytes": "32",
        "value": "t_address"
      },
      "t_mapping(t_uint256,t_string_storage)": {
        "encoding": "mapping",
        "key": "t_uint256",
        "label": "mapping(uint256 => string)",
        "numberOfBytes": "32",
        "value": "t_string_storage"
      },
      "t_mapping(t_uint256,t_uint256)": {
        "encoding": "mapping",
        "key": "t_uint256",
        "label": "mapping(uint256 => uint256)",
        "numberOfBytes": "32",
        "value": "t_uint256"
      },
      "t_string_storage": {
        "encoding": "bytes",
        "label": "string",
        "numberOfBytes": "32"
      },
      "t_uint16": {
        "encoding": "inplace",
        "label": "uint16",
        "numberOfBytes": "2"
      },
      "t_uint256": {
        "encoding": "inplace",
        "label": "uint256",
        "numberOfBytes": "32"
      },
      "t_uint32": {
        "encoding": "inplace",
        "label": "uint32",
        "numberOfBytes": "4"
      },
      "t_uint64": {
        "encoding": "inplace",
        "label": "uint64",
        "numberOfBytes": "8"
      }
    }
  }
}