{
  "address": "0xA4f9C88D8Ea7912e837B986C59F39c032E04f8c4",
  "abi": [
    {
      "inputs": [],
      "stateMutability": "nonpayable",
      "type": "constructor"
    },
    {
      "anonymous": false,
      "inputs": [
        {
          "indexed": true,
          "internalType": "address",
          "name": "owner",
          "type": "address"
        },
        {
          "indexed": true,
          "internalType": "address",
          "name": "approved",
          "type": "address"
        },
        {
          "indexed": true,
          "internalType": "uint256",
          "name": "tokenId",
          "type": "uint256"
        }
      ],
      "name": "Approval",
      "type": "event"
    },
    {
      "anonymous": false,
      "inputs": [
        {
          "indexed": true,
          "internalType": "address",
          "name": "owner",
          "type": "address"
        },
        {
          "indexed": true,
          "internalType": "address",
          "name": "operator",
          "type": "address"
        },
        {
          "indexed": false,
          "internalType": "bool",
          "name": "approved",
          "type": "bool"
        }
      ],
      "name": "ApprovalForAll",
      "type": "event"
    },
    {
      "anonymous": false,
      "inputs": [
        {
          "indexed": true,
          "internalType": "uint256",
          "name": "tokenId",
          "type": "uint256"
        },
        {
          "indexed": false,
          "internalType": "string",
          "name": "tokenURI",
          "type": "string"
        }
      ],
      "name": "CreatedSVGNFT",
      "type": "event"
    },
    {
      "anonymous": false,
      "inputs": [
        {
          "indexed": true,
          "internalType": "address",
          "name": "from",
          "type": "address"
        },
        {
          "indexed": true,
          "internalType": "address",
          "name": "to",
          "type": "address"
        },
        {
          "indexed": true,
          "internalType": "uint256",
          "name": "tokenId",
          "type": "uint256"
        }
      ],
      "name": "Transfer",
      "type": "event"
    },
    {
      "inputs": [
        {
          "internalType": "address",
          "name": "to",
          "type": "address"
        },
        {
          "internalType": "uint256",
          "name": "tokenId",
          "type": "uint256"
        }
      ],
      "name": "approve",
      "outputs": [],
      "stateMutability": "nonpayable",
      "type": "function"
    },
    {
      "inputs": [
        {
          "internalType": "address",
          "name": "owner",
          "type": "address"
        }
      ],
      "name": "balanceOf",
      "outputs": [
        {
          "internalType": "uint256",
          "name": "",
          "type": "uint256"
        }
      ],
      "stateMutability": "view",
      "type": "function"
    },
    {
      "inputs": [
        {
          "internalType": "string",
          "name": "_svg",
          "type": "string"
        }
      ],
      "name": "create",
      "outputs": [],
      "stateMutability": "nonpayable",
      "type": "function"
    },
    {
      "inputs": [
        {
          "internalType": "string",
          "name": "_imageURI",
          "type": "string"
        }
      ],
      "name": "formatTokenURI",
      "outputs": [
        {
          "internalType": "string",
          "name": "",
          "type": "string"
        }
      ],
      "stateMutability": "pure",
      "type": "function"
    },
    {
      "inputs": [
        {
          "internalType": "uint256",
          "name": "tokenId",
          "type": "uint256"
        }
      ],
      "name": "getApproved",
      "outputs": [
        {
          "internalType": "address",
          "name": "",
          "type": "address"
        }
      ],
      "stateMutability": "view",
      "type": "function"
    },
    {
      "inputs": [
        {
          "internalType": "address",
          "name": "owner",
          "type": "address"
        },
        {
          "internalType": "address",
          "name": "operator",
          "type": "address"
        }
      ],
      "name": "isApprovedForAll",
      "outputs": [
        {
          "internalType": "bool",
          "name": "",
          "type": "bool"
        }
      ],
      "stateMutability": "view",
      "type": "function"
    },
    {
      "inputs": [],
      "name": "name",
      "outputs": [
        {
          "internalType": "string",
          "name": "",
          "type": "string"
        }
      ],
      "stateMutability": "view",
      "type": "function"
    },
    {
      "inputs": [
        {
          "internalType": "uint256",
          "name": "tokenId",
          "type": "uint256"
        }
      ],
      "name": "ownerOf",
      "outputs": [
        {
          "internalType": "address",
          "name": "",
          "type": "address"
        }
      ],
      "stateMutability": "view",
      "type": "function"
    },
    {
      "inputs": [
        {
          "internalType": "address",
          "name": "from",
          "type": "address"
        },
        {
          "internalType": "address",
          "name": "to",
          "type": "address"
        },
        {
          "internalType": "uint256",
          "name": "tokenId",
          "type": "uint256"
        }
      ],
      "name": "safeTransferFrom",
      "outputs": [],
      "stateMutability": "nonpayable",
      "type": "function"
    },
    {
      "inputs": [
        {
          "internalType": "address",
          "name": "from",
          "type": "address"
        },
        {
          "internalType": "address",
          "name": "to",
          "type": "address"
        },
        {
          "internalType": "uint256",
          "name": "tokenId",
          "type": "uint256"
        },
        {
          "internalType": "bytes",
          "name": "_data",
          "type": "bytes"
        }
      ],
      "name": "safeTransferFrom",
      "outputs": [],
      "stateMutability": "nonpayable",
      "type": "function"
    },
    {
      "inputs": [
        {
          "internalType": "address",
          "name": "operator",
          "type": "address"
        },
        {
          "internalType": "bool",
          "name": "approved",
          "type": "bool"
        }
      ],
      "name": "setApprovalForAll",
      "outputs": [],
      "stateMutability": "nonpayable",
      "type": "function"
    },
    {
      "inputs": [
        {
          "internalType": "bytes4",
          "name": "interfaceId",
          "type": "bytes4"
        }
      ],
      "name": "supportsInterface",
      "outputs": [
        {
          "internalType": "bool",
          "name": "",
          "type": "bool"
        }
      ],
      "stateMutability": "view",
      "type": "function"
    },
    {
      "inputs": [],
      "name": "symbol",
      "outputs": [
        {
          "internalType": "string",
          "name": "",
          "type": "string"
        }
      ],
      "stateMutability": "view",
      "type": "function"
    },
    {
      "inputs": [],
      "name": "tokenCounter",
      "outputs": [
        {
          "internalType": "uint256",
          "name": "",
          "type": "uint256"
        }
      ],
      "stateMutability": "view",
      "type": "function"
    },
    {
      "inputs": [
        {
          "internalType": "uint256",
          "name": "tokenId",
          "type": "uint256"
        }
      ],
      "name": "tokenURI",
      "outputs": [
        {
          "internalType": "string",
          "name": "",
          "type": "string"
        }
      ],
      "stateMutability": "view",
      "type": "function"
    },
    {
      "inputs": [
        {
          "internalType": "address",
          "name": "from",
          "type": "address"
        },
        {
          "internalType": "address",
          "name": "to",
          "type": "address"
        },
        {
          "internalType": "uint256",
          "name": "tokenId",
          "type": "uint256"
        }
      ],
      "name": "transferFrom",
      "outputs": [],
      "stateMutability": "nonpayable",
      "type": "function"
    }
  ],
  "transactionHash": "0x0e8c9f6c68e6e41d2e1bf3831753ac779d36abec39ee615ffc32b943320cf943",
  "args": [],
  "numDeployments": 1,
  "solcInputHash": "a6a085708cb2ebea1dc30bb6113f4ba2",
  "bytecode": "0x60806040523480156200001157600080fd5b506040518060400160405280600781526020017f535647204e4654000000000000000000000000000000000000000000000000008152506040518060400160405280600681526020017f7376674e46540000000000000000000000000000000000000000000000000000815250816000908051906020019062000096929190620000c0565b508060019080519060200190620000af929190620000c0565b5050506000600781905550620001d5565b828054620000ce9062000170565b90600052602060002090601f016020900481019282620000f257600085556200013e565b82601f106200010d57805160ff19168380011785556200013e565b828001600101855582156200013e579182015b828111156200013d57825182559160200191906001019062000120565b5b5090506200014d919062000151565b5090565b5b808211156200016c57600081600090555060010162000152565b5090565b600060028204905060018216806200018957607f821691505b60208210811415620001a0576200019f620001a6565b5b50919050565b7f4e487b7100000000000000000000000000000000000000000000000000000000600052602260045260246000fd5b61309180620001e56000396000f3fe608060405234801561001057600080fd5b50600436106101005760003560e01c806371aee19311610097578063b88d4fde11610066578063b88d4fde146102bd578063c87b56dd146102d9578063d082e38114610309578063e985e9c51461032757610100565b806371aee1931461023757806395d89b4114610267578063a22cb46514610285578063b6a46b3b146102a157610100565b806323b872dd116100d357806323b872dd1461019f57806342842e0e146101bb5780636352211e146101d757806370a082311461020757610100565b806301ffc9a71461010557806306fdde0314610135578063081812fc14610153578063095ea7b314610183575b600080fd5b61011f600480360381019061011a9190611f3b565b610357565b60405161012c919061240c565b60405180910390f35b61013d610439565b60405161014a9190612427565b60405180910390f35b61016d60048036038101906101689190611fce565b6104cb565b60405161017a91906123a5565b60405180910390f35b61019d60048036038101906101989190611eff565b610550565b005b6101b960048036038101906101b49190611df9565b610668565b005b6101d560048036038101906101d09190611df9565b6106c8565b005b6101f160048036038101906101ec9190611fce565b6106e8565b6040516101fe91906123a5565b60405180910390f35b610221600480360381019061021c9190611d94565b61079a565b60405161022e9190612649565b60405180910390f35b610251600480360381019061024c9190611f8d565b610852565b60405161025e9190612427565b60405180910390f35b61026f6108df565b60405161027c9190612427565b60405180910390f35b61029f600480360381019061029a9190611ec3565b610971565b005b6102bb60048036038101906102b69190611f8d565b610987565b005b6102d760048036038101906102d29190611e48565b610a10565b005b6102f360048036038101906102ee9190611fce565b610a72565b6040516103009190612427565b60405180910390f35b610311610bc4565b60405161031e9190612649565b60405180910390f35b610341600480360381019061033c9190611dbd565b610bca565b60405161034e919061240c565b60405180910390f35b60007f80ac58cd000000000000000000000000000000000000000000000000000000007bffffffffffffffffffffffffffffffffffffffffffffffffffffffff1916827bffffffffffffffffffffffffffffffffffffffffffffffffffffffff1916148061042257507f5b5e139f000000000000000000000000000000000000000000000000000000007bffffffffffffffffffffffffffffffffffffffffffffffffffffffff1916827bffffffffffffffffffffffffffffffffffffffffffffffffffffffff1916145b80610432575061043182610c5e565b5b9050919050565b606060008054610448906128f9565b80601f0160208091040260200160405190810160405280929190818152602001828054610474906128f9565b80156104c15780601f10610496576101008083540402835291602001916104c1565b820191906000526020600020905b8154815290600101906020018083116104a457829003601f168201915b5050505050905090565b60006104d682610cc8565b610515576040517f08c379a000000000000000000000000000000000000000000000000000000000815260040161050c906125c9565b60405180910390fd5b6004600083815260200190815260200160002060009054906101000a900473ffffffffffffffffffffffffffffffffffffffff169050919050565b600061055b826106e8565b90508073ffffffffffffffffffffffffffffffffffffffff168373ffffffffffffffffffffffffffffffffffffffff1614156105cc576040517f08c379a00000000000000000000000000000000000000000000000000000000081526004016105c390612609565b60405180910390fd5b8073ffffffffffffffffffffffffffffffffffffffff166105eb610d34565b73ffffffffffffffffffffffffffffffffffffffff16148061061a575061061981610614610d34565b610bca565b5b610659576040517f08c379a000000000000000000000000000000000000000000000000000000000815260040161065090612509565b60405180910390fd5b6106638383610d3c565b505050565b610679610673610d34565b82610df5565b6106b8576040517f08c379a00000000000000000000000000000000000000000000000000000000081526004016106af90612629565b60405180910390fd5b6106c3838383610ed3565b505050565b6106e383838360405180602001604052806000815250610a10565b505050565b6000806002600084815260200190815260200160002060009054906101000a900473ffffffffffffffffffffffffffffffffffffffff169050600073ffffffffffffffffffffffffffffffffffffffff168173ffffffffffffffffffffffffffffffffffffffff161415610791576040517f08c379a000000000000000000000000000000000000000000000000000000000815260040161078890612549565b60405180910390fd5b80915050919050565b60008073ffffffffffffffffffffffffffffffffffffffff168273ffffffffffffffffffffffffffffffffffffffff16141561080b576040517f08c379a000000000000000000000000000000000000000000000000000000000815260040161080290612529565b60405180910390fd5b600360008373ffffffffffffffffffffffffffffffffffffffff1673ffffffffffffffffffffffffffffffffffffffff168152602001908152602001600020549050919050565b606060006040518060400160405280601d81526020017f646174613a6170706c69636174696f6e2f6a736f6e3b6261736536342c0000008152509050806108b7846040516020016108a39190612378565b60405160208183030381529060405261113a565b6040516020016108c8929190612354565b604051602081830303815290604052915050919050565b6060600180546108ee906128f9565b80601f016020809104026020016040519081016040528092919081815260200182805461091a906128f9565b80156109675780601f1061093c57610100808354040283529160200191610967565b820191906000526020600020905b81548152906001019060200180831161094a57829003601f168201915b5050505050905090565b61098361097c610d34565b83836112d9565b5050565b61099333600754611446565b600061099e82611620565b905060006109ab82610852565b90506109b9600754826116b9565b6007547ff5acc616aa8ecd00e5d76674d7812f9c3c3571d662c9fba4499deefa6d0be12d826040516109eb9190612427565b60405180910390a260076000815480929190610a069061295c565b9190505550505050565b610a21610a1b610d34565b83610df5565b610a60576040517f08c379a0000000000000000000000000000000000000000000000000000000008152600401610a5790612629565b60405180910390fd5b610a6c8484848461172d565b50505050565b6060610a7d82610cc8565b610abc576040517f08c379a0000000000000000000000000000000000000000000000000000000008152600401610ab3906125a9565b60405180910390fd5b6000600660008481526020019081526020016000208054610adc906128f9565b80601f0160208091040260200160405190810160405280929190818152602001828054610b08906128f9565b8015610b555780601f10610b2a57610100808354040283529160200191610b55565b820191906000526020600020905b815481529060010190602001808311610b3857829003601f168201915b505050505090506000610b66611789565b9050600081511415610b7c578192505050610bbf565b600082511115610bb1578082604051602001610b99929190612354565b60405160208183030381529060405292505050610bbf565b610bba846117a0565b925050505b919050565b60075481565b6000600560008473ffffffffffffffffffffffffffffffffffffffff1673ffffffffffffffffffffffffffffffffffffffff16815260200190815260200160002060008373ffffffffffffffffffffffffffffffffffffffff1673ffffffffffffffffffffffffffffffffffffffff16815260200190815260200160002060009054906101000a900460ff16905092915050565b60007f01ffc9a7000000000000000000000000000000000000000000000000000000007bffffffffffffffffffffffffffffffffffffffffffffffffffffffff1916827bffffffffffffffffffffffffffffffffffffffffffffffffffffffff1916149050919050565b60008073ffffffffffffffffffffffffffffffffffffffff166002600084815260200190815260200160002060009054906101000a900473ffffffffffffffffffffffffffffffffffffffff1673ffffffffffffffffffffffffffffffffffffffff1614159050919050565b600033905090565b816004600083815260200190815260200160002060006101000a81548173ffffffffffffffffffffffffffffffffffffffff021916908373ffffffffffffffffffffffffffffffffffffffff160217905550808273ffffffffffffffffffffffffffffffffffffffff16610daf836106e8565b73ffffffffffffffffffffffffffffffffffffffff167f8c5be1e5ebec7d5bd14f71427d1e84f3dd0314c0f7b2291e5b200ac8c7c3b92560405160405180910390a45050565b6000610e0082610cc8565b610e3f576040517f08c379a0000000000000000000000000000000000000000000000000000000008152600401610e36906124e9565b60405180910390fd5b6000610e4a836106e8565b90508073ffffffffffffffffffffffffffffffffffffffff168473ffffffffffffffffffffffffffffffffffffffff161480610eb957508373ffffffffffffffffffffffffffffffffffffffff16610ea1846104cb565b73ffffffffffffffffffffffffffffffffffffffff16145b80610eca5750610ec98185610bca565b5b91505092915050565b8273ffffffffffffffffffffffffffffffffffffffff16610ef3826106e8565b73ffffffffffffffffffffffffffffffffffffffff1614610f49576040517f08c379a0000000000000000000000000000000000000000000000000000000008152600401610f4090612469565b60405180910390fd5b600073ffffffffffffffffffffffffffffffffffffffff168273ffffffffffffffffffffffffffffffffffffffff161415610fb9576040517f08c379a0000000000000000000000000000000000000000000000000000000008152600401610fb0906124a9565b60405180910390fd5b610fc4838383611847565b610fcf600082610d3c565b6001600360008573ffffffffffffffffffffffffffffffffffffffff1673ffffffffffffffffffffffffffffffffffffffff168152602001908152602001600020600082825461101f919061280f565b925050819055506001600360008473ffffffffffffffffffffffffffffffffffffffff1673ffffffffffffffffffffffffffffffffffffffff1681526020019081526020016000206000828254611076919061272e565b92505081905550816002600083815260200190815260200160002060006101000a81548173ffffffffffffffffffffffffffffffffffffffff021916908373ffffffffffffffffffffffffffffffffffffffff160217905550808273ffffffffffffffffffffffffffffffffffffffff168473ffffffffffffffffffffffffffffffffffffffff167fddf252ad1be2c89b69c2b068fc378daa952ba7f163c4a11628f55a4df523b3ef60405160405180910390a461113583838361184c565b505050565b606060008251141561115d576040518060200160405280600081525090506112d4565b600060405180606001604052806040815260200161301c604091399050600060036002855161118c919061272e565b6111969190612784565b60046111a291906127b5565b905060006020826111b3919061272e565b67ffffffffffffffff8111156111f2577f4e487b7100000000000000000000000000000000000000000000000000000000600052604160045260246000fd5b6040519080825280601f01601f1916602001820160405280156112245781602001600182028036833780820191505090505b509050818152600183018586518101602084015b81831015611293576003830192508251603f8160121c168501518253600182019150603f81600c1c168501518253600182019150603f8160061c168501518253600182019150603f8116850151825360018201915050611238565b6003895106600181146112ad57600281146112bd576112c8565b613d3d60f01b60028303526112c8565b603d60f81b60018303525b50505050508093505050505b919050565b8173ffffffffffffffffffffffffffffffffffffffff168373ffffffffffffffffffffffffffffffffffffffff161415611348576040517f08c379a000000000000000000000000000000000000000000000000000000000815260040161133f906124c9565b60405180910390fd5b80600560008573ffffffffffffffffffffffffffffffffffffffff1673ffffffffffffffffffffffffffffffffffffffff16815260200190815260200160002060008473ffffffffffffffffffffffffffffffffffffffff1673ffffffffffffffffffffffffffffffffffffffff16815260200190815260200160002060006101000a81548160ff0219169083151502179055508173ffffffffffffffffffffffffffffffffffffffff168373ffffffffffffffffffffffffffffffffffffffff167f17307eab39ab6107e8899845ad3d59bd9653f200f220920489ca2b5937696c3183604051611439919061240c565b60405180910390a3505050565b600073ffffffffffffffffffffffffffffffffffffffff168273ffffffffffffffffffffffffffffffffffffffff1614156114b6576040517f08c379a00000000000000000000000000000000000000000000000000000000081526004016114ad90612589565b60405180910390fd5b6114bf81610cc8565b156114ff576040517f08c379a00000000000000000000000000000000000000000000000000000000081526004016114f690612489565b60405180910390fd5b61150b60008383611847565b6001600360008473ffffffffffffffffffffffffffffffffffffffff1673ffffffffffffffffffffffffffffffffffffffff168152602001908152602001600020600082825461155b919061272e565b92505081905550816002600083815260200190815260200160002060006101000a81548173ffffffffffffffffffffffffffffffffffffffff021916908373ffffffffffffffffffffffffffffffffffffffff160217905550808273ffffffffffffffffffffffffffffffffffffffff16600073ffffffffffffffffffffffffffffffffffffffff167fddf252ad1be2c89b69c2b068fc378daa952ba7f163c4a11628f55a4df523b3ef60405160405180910390a461161c6000838361184c565b5050565b606060006040518060400160405280601a81526020017f646174613a696d6167652f7376672b786d6c3b6261736536342c0000000000008152509050600061168684604051602001611672919061233d565b60405160208183030381529060405261113a565b90506000828260405160200161169d929190612354565b6040516020818303038152906040529050809350505050919050565b6116c282610cc8565b611701576040517f08c379a00000000000000000000000000000000000000000000000000000000081526004016116f890612569565b60405180910390fd5b80600660008481526020019081526020016000209080519060200190611728929190611bb8565b505050565b611738848484610ed3565b61174484848484611851565b611783576040517f08c379a000000000000000000000000000000000000000000000000000000000815260040161177a90612449565b60405180910390fd5b50505050565b606060405180602001604052806000815250905090565b60606117ab82610cc8565b6117ea576040517f08c379a00000000000000000000000000000000000000000000000000000000081526004016117e1906125e9565b60405180910390fd5b60006117f4611789565b90506000815111611814576040518060200160405280600081525061183f565b8061181e846119e8565b60405160200161182f929190612354565b6040516020818303038152906040525b915050919050565b505050565b505050565b60006118728473ffffffffffffffffffffffffffffffffffffffff16611b95565b156119db578373ffffffffffffffffffffffffffffffffffffffff1663150b7a0261189b610d34565b8786866040518563ffffffff1660e01b81526004016118bd94939291906123c0565b602060405180830381600087803b1580156118d757600080fd5b505af192505050801561190857506040513d601f19601f820116820180604052508101906119059190611f64565b60015b61198b573d8060008114611938576040519150601f19603f3d011682016040523d82523d6000602084013e61193d565b606091505b50600081511415611983576040517f08c379a000000000000000000000000000000000000000000000000000000000815260040161197a90612449565b60405180910390fd5b805181602001fd5b63150b7a0260e01b7bffffffffffffffffffffffffffffffffffffffffffffffffffffffff1916817bffffffffffffffffffffffffffffffffffffffffffffffffffffffff1916149150506119e0565b600190505b949350505050565b60606000821415611a30576040518060400160405280600181526020017f30000000000000000000000000000000000000000000000000000000000000008152509050611b90565b600082905060005b60008214611a62578080611a4b9061295c565b915050600a82611a5b9190612784565b9150611a38565b60008167ffffffffffffffff811115611aa4577f4e487b7100000000000000000000000000000000000000000000000000000000600052604160045260246000fd5b6040519080825280601f01601f191660200182016040528015611ad65781602001600182028036833780820191505090505b5090505b60008514611b8957600182611aef919061280f565b9150600a85611afe91906129a5565b6030611b0a919061272e565b60f81b818381518110611b46577f4e487b7100000000000000000000000000000000000000000000000000000000600052603260045260246000fd5b60200101907effffffffffffffffffffffffffffffffffffffffffffffffffffffffffffff1916908160001a905350600a85611b829190612784565b9450611ada565b8093505050505b919050565b6000808273ffffffffffffffffffffffffffffffffffffffff163b119050919050565b828054611bc4906128f9565b90600052602060002090601f016020900481019282611be65760008555611c2d565b82601f10611bff57805160ff1916838001178555611c2d565b82800160010185558215611c2d579182015b82811115611c2c578251825591602001919060010190611c11565b5b509050611c3a9190611c3e565b5090565b5b80821115611c57576000816000905550600101611c3f565b5090565b6000611c6e611c6984612689565b612664565b905082815260208101848484011115611c8657600080fd5b611c918482856128b7565b509392505050565b6000611cac611ca7846126ba565b612664565b905082815260208101848484011115611cc457600080fd5b611ccf8482856128b7565b509392505050565b600081359050611ce681612fbf565b92915050565b600081359050611cfb81612fd6565b92915050565b600081359050611d1081612fed565b92915050565b600081519050611d2581612fed565b92915050565b600082601f830112611d3c57600080fd5b8135611d4c848260208601611c5b565b91505092915050565b600082601f830112611d6657600080fd5b8135611d76848260208601611c99565b91505092915050565b600081359050611d8e81613004565b92915050565b600060208284031215611da657600080fd5b6000611db484828501611cd7565b91505092915050565b60008060408385031215611dd057600080fd5b6000611dde85828601611cd7565b9250506020611def85828601611cd7565b9150509250929050565b600080600060608486031215611e0e57600080fd5b6000611e1c86828701611cd7565b9350506020611e2d86828701611cd7565b9250506040611e3e86828701611d7f565b9150509250925092565b60008060008060808587031215611e5e57600080fd5b6000611e6c87828801611cd7565b9450506020611e7d87828801611cd7565b9350506040611e8e87828801611d7f565b925050606085013567ffffffffffffffff811115611eab57600080fd5b611eb787828801611d2b565b91505092959194509250565b60008060408385031215611ed657600080fd5b6000611ee485828601611cd7565b9250506020611ef585828601611cec565b9150509250929050565b60008060408385031215611f1257600080fd5b6000611f2085828601611cd7565b9250506020611f3185828601611d7f565b9150509250929050565b600060208284031215611f4d57600080fd5b6000611f5b84828501611d01565b91505092915050565b600060208284031215611f7657600080fd5b6000611f8484828501611d16565b91505092915050565b600060208284031215611f9f57600080fd5b600082013567ffffffffffffffff811115611fb957600080fd5b611fc584828501611d55565b91505092915050565b600060208284031215611fe057600080fd5b6000611fee84828501611d7f565b91505092915050565b61200081612843565b82525050565b61200f81612855565b82525050565b6000612020826126eb565b61202a8185612701565b935061203a8185602086016128c6565b61204381612a92565b840191505092915050565b6000612059826126f6565b6120638185612712565b93506120738185602086016128c6565b61207c81612a92565b840191505092915050565b6000612092826126f6565b61209c8185612723565b93506120ac8185602086016128c6565b80840191505092915050565b60006120c5603283612712565b91506120d082612aa3565b604082019050919050565b60006120e8602583612712565b91506120f382612af2565b604082019050919050565b600061210b601c83612712565b915061211682612b41565b602082019050919050565b600061212e602483612712565b915061213982612b6a565b604082019050919050565b6000612151601983612712565b915061215c82612bb9565b602082019050919050565b6000612174602c83612712565b915061217f82612be2565b604082019050919050565b6000612197603883612712565b91506121a282612c31565b604082019050919050565b60006121ba602a83612712565b91506121c582612c80565b604082019050919050565b60006121dd602983612712565b91506121e882612ccf565b604082019050919050565b6000612200602e83612712565b915061220b82612d1e565b604082019050919050565b6000612223605383612723565b915061222e82612d6d565b605382019050919050565b6000612246600283612723565b915061225182612de2565b600282019050919050565b6000612269602083612712565b915061227482612e0b565b602082019050919050565b600061228c603183612712565b915061229782612e34565b604082019050919050565b60006122af602c83612712565b91506122ba82612e83565b604082019050919050565b60006122d2602f83612712565b91506122dd82612ed2565b604082019050919050565b60006122f5602183612712565b915061230082612f21565b604082019050919050565b6000612318603183612712565b915061232382612f70565b604082019050919050565b612337816128ad565b82525050565b60006123498284612087565b915081905092915050565b60006123608285612087565b915061236c8284612087565b91508190509392505050565b600061238382612216565b915061238f8284612087565b915061239a82612239565b915081905092915050565b60006020820190506123ba6000830184611ff7565b92915050565b60006080820190506123d56000830187611ff7565b6123e26020830186611ff7565b6123ef604083018561232e565b81810360608301526124018184612015565b905095945050505050565b60006020820190506124216000830184612006565b92915050565b60006020820190508181036000830152612441818461204e565b905092915050565b60006020820190508181036000830152612462816120b8565b9050919050565b60006020820190508181036000830152612482816120db565b9050919050565b600060208201905081810360008301526124a2816120fe565b9050919050565b600060208201905081810360008301526124c281612121565b9050919050565b600060208201905081810360008301526124e281612144565b9050919050565b6000602082019050818103600083015261250281612167565b9050919050565b600060208201905081810360008301526125228161218a565b9050919050565b60006020820190508181036000830152612542816121ad565b9050919050565b60006020820190508181036000830152612562816121d0565b9050919050565b60006020820190508181036000830152612582816121f3565b9050919050565b600060208201905081810360008301526125a28161225c565b9050919050565b600060208201905081810360008301526125c28161227f565b9050919050565b600060208201905081810360008301526125e2816122a2565b9050919050565b60006020820190508181036000830152612602816122c5565b9050919050565b60006020820190508181036000830152612622816122e8565b9050919050565b600060208201905081810360008301526126428161230b565b9050919050565b600060208201905061265e600083018461232e565b92915050565b600061266e61267f565b905061267a828261292b565b919050565b6000604051905090565b600067ffffffffffffffff8211156126a4576126a3612a63565b5b6126ad82612a92565b9050602081019050919050565b600067ffffffffffffffff8211156126d5576126d4612a63565b5b6126de82612a92565b9050602081019050919050565b600081519050919050565b600081519050919050565b600082825260208201905092915050565b600082825260208201905092915050565b600081905092915050565b6000612739826128ad565b9150612744836128ad565b9250827fffffffffffffffffffffffffffffffffffffffffffffffffffffffffffffffff03821115612779576127786129d6565b5b828201905092915050565b600061278f826128ad565b915061279a836128ad565b9250826127aa576127a9612a05565b5b828204905092915050565b60006127c0826128ad565b91506127cb836128ad565b9250817fffffffffffffffffffffffffffffffffffffffffffffffffffffffffffffffff0483118215151615612804576128036129d6565b5b828202905092915050565b600061281a826128ad565b9150612825836128ad565b925082821015612838576128376129d6565b5b828203905092915050565b600061284e8261288d565b9050919050565b60008115159050919050565b60007fffffffff0000000000000000000000000000000000000000000000000000000082169050919050565b600073ffffffffffffffffffffffffffffffffffffffff82169050919050565b6000819050919050565b82818337600083830152505050565b60005b838110156128e45780820151818401526020810190506128c9565b838111156128f3576000848401525b50505050565b6000600282049050600182168061291157607f821691505b6020821081141561292557612924612a34565b5b50919050565b61293482612a92565b810181811067ffffffffffffffff8211171561295357612952612a63565b5b80604052505050565b6000612967826128ad565b91507fffffffffffffffffffffffffffffffffffffffffffffffffffffffffffffffff82141561299a576129996129d6565b5b600182019050919050565b60006129b0826128ad565b91506129bb836128ad565b9250826129cb576129ca612a05565b5b828206905092915050565b7f4e487b7100000000000000000000000000000000000000000000000000000000600052601160045260246000fd5b7f4e487b7100000000000000000000000000000000000000000000000000000000600052601260045260246000fd5b7f4e487b7100000000000000000000000000000000000000000000000000000000600052602260045260246000fd5b7f4e487b7100000000000000000000000000000000000000000000000000000000600052604160045260246000fd5b6000601f19601f8301169050919050565b7f4552433732313a207472616e7366657220746f206e6f6e20455243373231526560008201527f63656976657220696d706c656d656e7465720000000000000000000000000000602082015250565b7f4552433732313a207472616e736665722066726f6d20696e636f72726563742060008201527f6f776e6572000000000000000000000000000000000000000000000000000000602082015250565b7f4552433732313a20746f6b656e20616c7265616479206d696e74656400000000600082015250565b7f4552433732313a207472616e7366657220746f20746865207a65726f2061646460008201527f7265737300000000000000000000000000000000000000000000000000000000602082015250565b7f4552433732313a20617070726f766520746f2063616c6c657200000000000000600082015250565b7f4552433732313a206f70657261746f7220717565727920666f72206e6f6e657860008201527f697374656e7420746f6b656e0000000000000000000000000000000000000000602082015250565b7f4552433732313a20617070726f76652063616c6c6572206973206e6f74206f7760008201527f6e6572206e6f7220617070726f76656420666f7220616c6c0000000000000000602082015250565b7f4552433732313a2062616c616e636520717565727920666f7220746865207a6560008201527f726f206164647265737300000000000000000000000000000000000000000000602082015250565b7f4552433732313a206f776e657220717565727920666f72206e6f6e657869737460008201527f656e7420746f6b656e0000000000000000000000000000000000000000000000602082015250565b7f45524337323155524953746f726167653a2055524920736574206f66206e6f6e60008201527f6578697374656e7420746f6b656e000000000000000000000000000000000000602082015250565b7f7b226e616d65223a22535647204e4654222c20226465736372697074696f6e2260008201527f3a22416e204e4654206261736564206f6e2053564721222c202261747472696260208201527f75746573223a22222c2022696d616765223a2200000000000000000000000000604082015250565b7f227d000000000000000000000000000000000000000000000000000000000000600082015250565b7f4552433732313a206d696e7420746f20746865207a65726f2061646472657373600082015250565b7f45524337323155524953746f726167653a2055524920717565727920666f722060008201527f6e6f6e6578697374656e7420746f6b656e000000000000000000000000000000602082015250565b7f4552433732313a20617070726f76656420717565727920666f72206e6f6e657860008201527f697374656e7420746f6b656e0000000000000000000000000000000000000000602082015250565b7f4552433732314d657461646174613a2055524920717565727920666f72206e6f60008201527f6e6578697374656e7420746f6b656e0000000000000000000000000000000000602082015250565b7f4552433732313a20617070726f76616c20746f2063757272656e74206f776e6560008201527f7200000000000000000000000000000000000000000000000000000000000000602082015250565b7f4552433732313a207472616e736665722063616c6c6572206973206e6f74206f60008201527f776e6572206e6f7220617070726f766564000000000000000000000000000000602082015250565b612fc881612843565b8114612fd357600080fd5b50565b612fdf81612855565b8114612fea57600080fd5b50565b612ff681612861565b811461300157600080fd5b50565b61300d816128ad565b811461301857600080fd5b5056fe4142434445464748494a4b4c4d4e4f505152535455565758595a6162636465666768696a6b6c6d6e6f707172737475767778797a303132333435363738392b2fa26469706673582212206d1d53725421a097856e3b2909f111a3e24e5b5e713c0c3c127143a2064b858064736f6c63430008040033",
  "devdoc": {
    "kind": "dev",
    "methods": {
      "approve(address,uint256)": {
        "details": "See {IERC721-approve}."
      },
      "balanceOf(address)": {
        "details": "See {IERC721-balanceOf}."
      },
      "getApproved(uint256)": {
        "details": "See {IERC721-getApproved}."
      },
      "isApprovedForAll(address,address)": {
        "details": "See {IERC721-isApprovedForAll}."
      },
      "name()": {
        "details": "See {IERC721Metadata-name}."
      },
      "ownerOf(uint256)": {
        "details": "See {IERC721-ownerOf}."
      },
      "safeTransferFrom(address,address,uint256)": {
        "details": "See {IERC721-safeTransferFrom}."
      },
      "safeTransferFrom(address,address,uint256,bytes)": {
        "details": "See {IERC721-safeTransferFrom}."
      },
      "setApprovalForAll(address,bool)": {
        "details": "See {IERC721-setApprovalForAll}."
      },
      "supportsInterface(bytes4)": {
        "details": "See {IERC165-supportsInterface}."
      },
      "symbol()": {
        "details": "See {IERC721Metadata-symbol}."
      },
      "tokenURI(uint256)": {
        "details": "See {IERC721Metadata-tokenURI}."
      },
      "transferFrom(address,address,uint256)": {
        "details": "See {IERC721-transferFrom}."
      }
    },
    "version": 1
  },
  "userdoc": {
    "kind": "user",
    "methods": {},
    "version": 1
  },
  "storageLayout": {
    "storage": [
      {
        "astId": 25,
        "contract": "contracts/SVGNFT.sol:SVGNFT",
        "label": "_name",
        "offset": 0,
        "slot": "0",
        "type": "t_string_storage"
      },
      {
        "astId": 27,
        "contract": "contracts/SVGNFT.sol:SVGNFT",
        "label": "_symbol",
        "offset": 0,
        "slot": "1",
        "type": "t_string_storage"
      },
      {
        "astId": 31,
        "contract": "contracts/SVGNFT.sol:SVGNFT",
        "label": "_owners",
        "offset": 0,
        "slot": "2",
        "type": "t_mapping(t_uint256,t_address)"
      },
      {
        "astId": 35,
        "contract": "contracts/SVGNFT.sol:SVGNFT",
        "label": "_balances",
        "offset": 0,
        "slot": "3",
        "type": "t_mapping(t_address,t_uint256)"
      },
      {
        "astId": 39,
        "contract": "contracts/SVGNFT.sol:SVGNFT",
        "label": "_tokenApprovals",
        "offset": 0,
        "slot": "4",
        "type": "t_mapping(t_uint256,t_address)"
      },
      {
        "astId": 45,
        "contract": "contracts/SVGNFT.sol:SVGNFT",
        "label": "_operatorApprovals",
        "offset": 0,
        "slot": "5",
        "type": "t_mapping(t_address,t_mapping(t_address,t_bool))"
      },
      {
        "astId": 1012,
        "contract": "contracts/SVGNFT.sol:SVGNFT",
        "label": "_tokenURIs",
        "offset": 0,
        "slot": "6",
        "type": "t_mapping(t_uint256,t_string_storage)"
      },
      {
        "astId": 1833,
        "contract": "contracts/SVGNFT.sol:SVGNFT",
        "label": "tokenCounter",
        "offset": 0,
        "slot": "7",
        "type": "t_uint256"
      }
    ],
    "types": {
      "t_address": {
        "encoding": "inplace",
        "label": "address",
        "numberOfBytes": "20"
      },
      "t_bool": {
        "encoding": "inplace",
        "label": "bool",
        "numberOfBytes": "1"
      },
      "t_mapping(t_address,t_bool)": {
        "encoding": "mapping",
        "key": "t_address",
        "label": "mapping(address => bool)",
        "numberOfBytes": "32",
        "value": "t_bool"
      },
      "t_mapping(t_address,t_mapping(t_address,t_bool))": {
        "encoding": "mapping",
        "key": "t_address",
        "label": "mapping(address => mapping(address => bool))",
        "numberOfBytes": "32",
        "value": "t_mapping(t_address,t_bool)"
      },
      "t_mapping(t_address,t_uint256)": {
        "encoding": "mapping",
        "key": "t_address",
        "label": "mapping(address => uint256)",
        "numberOfBytes": "32",
        "value": "t_uint256"
      },
      "t_mapping(t_uint256,t_address)": {
        "encoding": "mapping",
        "key": "t_uint256",
        "label": "mapping(uint256 => address)",
        "numberOfBytes": "32",
        "value": "t_address"
      },
      "t_mapping(t_uint256,t_string_storage)": {
        "encoding": "mapping",
        "key": "t_uint256",
        "label": "mapping(uint256 => string)",
        "numberOfBytes": "32",
        "value": "t_string_storage"
      },
      "t_string_storage": {
        "encoding": "bytes",
        "label": "string",
        "numberOfBytes": "32"
      },
      "t_uint256": {
        "encoding": "inplace",
        "label": "uint256",
        "numberOfBytes": "32"
      }
    }
  }
}